:020000040800F2
:10000000B82100201D020008090900089F07000808
:1000100005090008890500083725000800000000D0
:10002000000000000000000000000000FD180008B3
:100030008D05000800000000B9120008111A000820
:10004000370200083702000837020008511600087E
:10005000370200083702000837020008370200089C
:10006000370200083702000837020008370200088C
:10007000370200083702000837020008370200087C
:10008000370200083702000837020008370200086C
:10009000370200083702000837020008370200085C
:1000A000370200083702000837020008370200084C
:1000B000751A0008511B00083702000837020008B3
:1000C000370200083702000837020008370200082C
:1000D000370200081523000837020008370200081D
:1000E000370200083702000837020008370200080C
:1000F00037020008370200083702000837020008FC
:1001000037020008370200083702000837020008EB
:1001100037020008370200083702000837020008DB
:1001200037020008370200083702000837020008CB
:1001300000F002F800F063F80AA090E8000C824496
:100140008344AAF10107DA4501D100F058F8AFF273
:10015000090EBAE80F0013F0010F18BFFB1A43F0A5
:1001600001031847643D0000843D000010F8013B86
:100170000A4413F0030408BF10F8014B1D1108BF17
:1001800010F8015B641E05D010F8016B641E01F8C5
:10019000016BF9D1002D15D010F8014B03F00C03C1
:1001A0000C2BA1EB04040ABF10F8013BA4EB831451
:1001B000A4EB032405F1010314F8016B5B1E01F8A5
:1001C000016BF9D5914238BF10F8013BD1D370478C
:1001D0000023002400250026103A28BF78C1FBD850
:1001E000520728BF30C148BF0B607047642900F038
:1001F0007780002070471FB51FBD10B510BD00F0FF
:1002000049F91146FFF7F7FF02F072FD00F067F9B8
:1002100003B4FFF7F2FF03BC02F0C4FC09488047B7
:1002200009480047FEE7FEE7FEE7FEE7FEE7FEE7D8
:10023000FEE7FEE7FEE7FEE704480549054A064BF0
:1002400070470000151A000831010008B81B002093
:10025000B8210020B81D0020B81D00207047000004
:100260000FB4044910B503AA029800F0DDF810BCE1
:100270005DF814FB641600202DE9F0410E4604469B
:10028000002020622046E168884730B3252805D049
:10029000D4E901219047206A401CF2E7E16820463A
:1002A00000278847050018D0A5F14100192802D879
:1002B00020354FF400673246294620462760FFF775
:1002C00095FF40B1012804D0F61D26F00706083638
:1002D000D8E7361DD6E72846DAE7206ABDE8F08180
:1002E0002DE9F0410646002410687529314616A50F
:1002F00010D0AFF30080002802DA404213A507E0D7
:1003000031688A0701D512A502E0490704D511A575
:10031000012401E0AFF3008000210A2206F1240746
:1003200009E0B0FBF2FCB0FBF2F302FB1C00303042
:1003300078541846491C0028F3D123462A463046F3
:10034000BDE8F04100F017B8000000002D000000EB
:100350002B00000020000000704770477047704776
:1003600010B500F073F8006810BD10B5044600F039
:100370006DF8046010BD2DE9F0470D469946924690
:10038000044600F124080168880604D5E06921F0DC
:100390001001216000E00120A84201DD471B00E0C0
:1003A0000027A1697A1902EB0900081AA0612078D8
:1003B000C00602D42046AFF30080002608E0D4E94E
:1003C00001211AF806009047206A401C761C206222
:1003D0004E45F4DB2078C0060AD52046AFF30080F6
:1003E00006E0D4E9012130209047206A401C2062B9
:1003F000381EA7F10107F4DC07E0D4E9012118F861
:1004000005009047206A401C2062281EA5F10105C6
:10041000F3DC2046AFF300802078000602D50220EE
:10042000BDE8F0870120FBE7074B70B50D467B4424
:1004300000F015F80446284600F024F810B14FF0FB
:10044000FF3070BD204670BDA328000000487047F3
:10045000581B002001694A1C02610878704700B5EA
:100460008FB0CDE901310021059105497944CDE9ED
:10047000031011466846FFF7FFFE0FB000BD0000F5
:10048000E5FFFFFF007B00F08000704700487047E9
:10049000581B00207546FFF7F9FFAE460500694678
:1004A000534620F00700854618B020B5FFF7C4FE7C
:1004B000BDE820404FF000064FF000074FF0000865
:1004C0004FF0000B21F00701AC46ACE8C009ACE8E6
:1004D000C009ACE8C009ACE8C0098D46704710B54A
:1004E0000446AFF300802046BDE81040FFF790BE01
:1004F00010B5012000F002FF002000F0FFFE10BD4B
:1005000008B5014600200090034800900098084478
:1005100000900098008808BD006C004008B50022DB
:100520000092044A0092009A02440092009A1160DC
:1005300008BD0000006C00401CB500204023802254
:100540000146009000F0C0FC00F0A6FD802416E0FB
:1005500000200090601EC2B208230021084600F06F
:10056000B3FC0120074940238022CDE9001000217F
:10057000204600F0C9FD00F08FFD201FC4B2002C02
:10058000E6DC1CBD0004002000BFFEE77047002130
:1005900000E0491C8142FCD37047F0B504460D468B
:1005A00016461F46EA19D1B2A219D0B2012200F0B4
:1005B0004FFCEA19D1B2A21BD0B2012200F048FCD4
:1005C000EA1BD1B2A21BD0B2012200F041FCEA1B0F
:1005D000D1B2A219D0B2012200F03AFCF0BD2DE94F
:1005E000F0410246002500260020002300240027B9
:1005F00091F803C00CF00F0591F803C00CF0100C3B
:10060000BCF1000F03D091F802C04CEA050591F847
:1006100000C0BCF1000F31D0146800202BE04FF077
:10062000010C0CFA00F3B1F800C00CEA03069E427C
:1006300020D183004FF00F0C0CFA03F7BC4305FAEE
:1006400003FC4CEA040491F803C0BCF1280F06D166
:100650004FF0010C0CFA00FCC2F814C00AE091F84B
:1006600003C0BCF1480F05D14FF0010C0CFA00FC9F
:10067000C2F810C0401C0828D1D31460B1F800C0E3
:10068000BCF1FF0F34DD546800202EE000F1080CAF
:100690004FF0010808FA0CF3B1F800C00CEA0306A9
:1006A0009E4221D183004FF00F0C0CFA03F7BC439C
:1006B00005FA03FC4CEA040491F803C0BCF1280FCE
:1006C00005D100F1080C08FA0CF8C2F8148091F872
:1006D00003C0BCF1480F07D100F1080C4FF001082E
:1006E00008FA0CF8C2F81080401C0828CED35460D9
:1006F000BDE8F081F0B50A46002300240021002562
:1007000000F00046B6F1004F02D11D4EF16901E044
:100710001B4E7168C0F3034583B200F44016B6F572
:10072000401F08D121F07061154E766826F0706682
:10073000134F7E6012E000F48016B6F5801F06D1DC
:10074000032606FA05F4A14341F0706106E0460D68
:10075000360103FA06F6B14341F0706122B1460D4D
:10076000360103FA06F6314300F00046B6F1004FB9
:1007700002D1034EF16101E0014E7160F0BD000055
:10078000000001400246002093680B400BB101209D
:1007900000E000207047416170470161704700BF71
:1007A000FEE70146CA1701EB92729210A1EB82029A
:1007B00092B9642091FBF0F200FB121050B94FF493
:1007C000C87091FBF0F200FB121008B901207047CD
:1007D0000020FCE70120FAE70020F8E708B5012136
:1007E000442000F07BFD1820ADF8000048208DF873
:1007F000030069460648FFF7F2FE0120ADF800004D
:1008000028208DF8030069460248FFF7E8FE08BD7E
:10081000001801400008014010B5044614B1012041
:10082000224908702148007850B310212048FFF772
:10083000A9FF50B108211E48FFF7A4FF28B10121EC
:100840001C48FFF79FFF01281AD10A2002F01CFA6A
:1008500000201649087010211548FFF793FF08B9CA
:10086000032010BD08211248FFF78CFF08B90220B1
:10087000F7E701210F48FFF785FF012814D1F0E7C2
:1008800010210B48FFF77EFF01280DD108210848F1
:10089000FFF778FF012807D101210648FFF772FF13
:1008A00010B90120014908700020DAE77E16002007
:1008B000001801400008014008B50121482000F05F
:1008C0000DFD2020ADF8000010208DF8030003205E
:1008D0008DF8020069460948FFF781FE202107488C
:1008E000FFF759FF2020ADF8000069460448FFF7E4
:1008F00076FE20210248FFF750FF08BD000C0140A2
:100900000018014000BFFEE77047000070B50021ED
:1009100000230F22C47804B3154C246804F4E06467
:10092000C4F5E064210AC1F10403CA40447804FA22
:1009300003F184781440214309010E4C0678A15537
:10094000047804F01F050124AC4005786D11AD005A
:1009500005F1E025C5F8004109E0047804F01F0521
:100960000124AC40044D0678761145F8264070BD50
:100970000CED00E000E400E080E100E0024901430A
:10098000024A1160704700000000FA050CED00E01B
:1009900070B5002418E004F1B000002100F01FFC45
:1009A0000021084600F01BFC0021102000F017FC7D
:1009B000002505E00121002000F011FC681CC5B2F3
:1009C000802DF7DB601CC4B2082CE4DB70BD000096
:1009D0002DE9F04F87B005460E4691469A46A9F19B
:1009E0005A0002F02EFD204A204BCDE9040102F00E
:1009F00053FD07468846002431E0204602F021FDE1
:100A0000CDE902013846414602F0CEF8CDE90001B9
:100A1000DDE9022302F040FDCDE9040102F0E2FC31
:100A20008346204602F00DFDCDE9020138464146DD
:100A300002F0FEF9CDE90001DDE9022302F02CFD10
:100A4000CDE9040102F0CEFC0690069A3244D1B200
:100A500005EB0B02D0B2109A00F0FAF9641C544571
:100A6000CBD307B0BDE8F08F916B50A246DF913F2A
:100A70002DE9F05F06460F4690461C46DDF828A09B
:100A80004FF0000BE11704EB5171C910A4EBC10149
:100A900031B92046E11704EB5171C1F3C70506E0F7
:100AA0002046E11704EB5171C910491CCDB23D46F7
:100AB00015E02946304600F013FBB1460BE05946DD
:100AC0000BF1010B1AF80100012100F088FB09F17C
:100AD000010000F0FF09C145F1DB681CC5B2A54269
:100AE000E7DBBDE8F09F00002DE9FF4F93B0914692
:100AF0001E4600253446B24609FB09F002F046FFC7
:100B0000119006FB06F002F041FF1090CAF10000C0
:100B100002F024FF4FF07A510F9002F0B1FE8046B0
:100B2000119902F07BFF0746109902F0A9FE834657
:100B300023462A46DDE91301FFF72FFD35E00021AA
:100B4000584602F037FF0DD26900C81C02F006FFBC
:100B50008046109902F062FF0746594602F090FE67
:100B600083461BE06100C1F1020002F0F7FE0E9027
:100B7000119902F053FF69000F90C81C02F0EEFEBD
:100B80000E90109902F04AFF80460F9902F078FE0D
:100B90000746594602F074FE8346641E6D1C2346C8
:100BA0002A46DDE91301FFF7F8FC204602F0D6FEE5
:100BB0004FF07C510E9002F0FDFF0F90119902F062
:100BC0002DFF0746681C02F0C9FE0F90109902F035
:100BD00025FF8046394602F0EDFEB0D309FB06F151
:100BE000480002F045FCCDE90C01611E01FB09F152
:100BF000480002F03DFCCDE90801284602F021FC46
:100C000007460022314B02F0E5F9CDE902013046FA
:100C100002F02EFCCDE90001DDE9022302F03CFCEC
:100C200000224FF08043CDE9040102F035FCCDE90C
:100C30000601DDE9082302F0CDF9CDE90A01DDE97D
:100C40000C2302F033FDCDE90E0102F091F9834649
:100C500036E00021584602F0ADFE1CD26100C1F121
:100C6000030002F07BFE0E90119902F0D7FE804641
:100C70006900881C02F072FE0E90109902F0CEFE00
:100C800041460F9002F0FCFD0746594602F0F8FD80
:100C900083466D1C0DE06100C1F1030002F05EFEB1
:100CA0008046119902F0BAFE0746594602F0E8FD67
:100CB0008346641E23462A46DDE91301FFF76DFCD7
:100CC000002CC6DC17B0BDE8F08F00000000E03F4C
:100CD0002DE9F84306460F46904600244546C8F1E4
:100CE00001095CE0012007EB050C0CF0FF03A6EB0B
:100CF000040C0CF0FF0207EB050C0CF0FF0106EBF7
:100D0000040C00900CF0FF0000F04DF80120A7EB60
:100D1000050C0CF0FF03A6EB040C0CF0FF02A7EB94
:100D2000050C0CF0FF0106EB040C00900CF0FF002A
:100D300000F039F8012007EB040C0CF0FF03A6EBE0
:100D4000050C0CF0FF0207EB040C0CF0FF0106EBA6
:100D5000050C00900CF0FF0000F025F80120A7EB37
:100D6000040C0CF0FF03A6EB050C0CF0FF02A7EB44
:100D7000040C0CF0FF0106EB050C00900CF0FF00DA
:100D800000F011F8B9F1000F03DA6000C01C8144D3
:100D900004E0601B4000401D81446D1E641CAC4299
:100DA000A0DDBDE8F8832DE9FF4F84B081468A4677
:100DB0000020029083460698A0EB09050798A0EB57
:100DC0000A06CDF80490CDF800A0002D01DD012722
:100DD00005E00DB9002702E04FF0FF376D42002E0D
:100DE00002DD4FF0010806E016B94FF0000802E0FE
:100DF0004FF0FF387642B54201DD2C4600E0344624
:100E0000002003901DE0009AD1B2019AD0B2119A4D
:100E100000F01EF8029828440290B3440298A042C1
:100E200005DD0298001B0290019838440190A3450B
:100E300004DDABEB040B0098404400900398401C89
:100E40000390611C03988842DDD908B0BDE8F08F9B
:100E5000F0B514460B46CF1701EB5777C7F3C7021F
:100E6000CF1701EB5777FF10A1EBC707FEB20123A5
:100E7000B340DDB24CB1134B03EBC0039B5C2B437F
:100E8000104F07EBC007BB541AE00E4B03EBC00337
:100E90009B5CDB430B4F07EBC007BB54094B03EBD9
:100EA000C0039B5C2B43074F07EBC007BB54054BAC
:100EB00003EBC0039B5CDB43024F07EBC007BB5453
:100EC000F0BD00004C1700202DE9F04706460F4604
:100ED00090469946DDF820A034460CE03D4606E0F9
:100EE000524629462046FFF7B3FF681CC5B24D4560
:100EF000F6DD601CC4B24445F0DDBDE8F0870000BB
:100F000010B54FF400610948FFF747FC4FF48061CA
:100F10000648FFF742FC4FF480610448FFF73BFCB2
:100F20004FF400610148FFF736FC10BD000C014092
:100F300010B54FF400610748FFF72FFC4FF48061B4
:100F40000448FFF728FC4FF480610248FFF725FCB6
:100F500010BD0000000C014010B54FF400610448C2
:100F6000FFF71BFC4FF400610148FFF714FC10BDB4
:100F7000000C014008B50121092000F0AFF9012162
:100F80004248FFF7B7FB4FF44060ADF80000102077
:100F90008DF8030003208DF8020069463C48FFF7F6
:100FA0001EFB4FF440613A48FFF7F7FB3948FFF763
:100FB000EEFA0021AE2000F012F90021084600F000
:100FC0000EF90021102000F00AF90021402000F065
:100FD00006F90021B02000F002F90021812000F084
:100FE000FEF80021FF2000F0FAF80021A12000F017
:100FF000F6F80021A62000F0F2F80021A82000F069
:10100000EEF800213F2000F0EAF80021C82000F0AF
:10101000E6F80021D32000F0E2F80021084600F0B5
:10102000DEF80021D52000F0DAF80021802000F061
:10103000D6F80021D82000F0D2F80021052000F0D9
:10104000CEF80021D92000F0CAF80021F12000F0EC
:10105000C6F80021DA2000F0C2F80021122000F0CA
:10106000BEF80021DB2000F0BAF80021302000F0AB
:10107000B6F800218D2000F0B2F80021142000F015
:10108000AEF80021AF2000F0AAF808BD0002300041
:10109000000C0140801A060070B500241BE004F12A
:1010A000B000002100F09BF80021084600F097F8FE
:1010B0000021102000F093F8002508E0074901EB1B
:1010C000C501085D012100F08AF8681CC5B2802DB9
:1010D000F4DB601CC4B2082CE1DB70BD4C170020AF
:1010E00070B504460D4605F1B000002100F077F818
:1010F000102141EA1410002100F071F804F00F00F3
:10110000002100F06CF870BD2DE9FF4F05460E463A
:1011100017461C46DDF838904FF0000A0095B3469C
:101120002046E21704EB5272D2102146E31704EB7B
:101130005373DB10A4EBC3030BB1012300E00023C6
:101140001A44D4B24FF0000845E0002003903BE081
:101150000D9810F80A0002900AF101001FFA80FAB7
:10116000002001901DE0029800F0010028B14A46DD
:1011700031462846FFF76CFE0AE0B9F1000F01D1B5
:10118000012000E00020024631462846FFF760FEBD
:10119000029840100290701CC6B20198401CC0B268
:1011A000019001980828DEDB681CC5B20098281A57
:1011B000B84204D1009D0BF1080000F0FF0B5E4621
:1011C0000398401CC0B203900398B842C0DB08F1FA
:1011D000010000F0FF08A045B7DBBDE8FF8F70B548
:1011E00004460D461DB1E0B200F04AF802E0E0B25C
:1011F00000F030F870BD00002DE9F04105462C46A6
:101200004FF400611248FFF7C6FA00261CE027469B
:1012100007F08007802F04D1F9000D48FFF7BDFAD1
:1012200004E04FF480610A48FFF7B5FA6006040E47
:101230004FF400610648FFF7B0FA4FF4006104482C
:10124000FFF7A9FA701CC6B2082EE0DBBDE8F081FA
:10125000000C014010B50446FFF752FE7820FFF75E
:10126000CBFFFFF779FE0020FFF7C6FFFFF774FE04
:101270002046FFF7C1FFFFF76FFEFFF759FE10BDD5
:1012800010B50446FFF73CFE7820FFF7B5FFFFF7E7
:1012900063FE4020FFF7B0FFFFF75EFE2046FFF73A
:1012A000ABFFFFF759FEFFF743FE10BD014908628F
:1012B0007047000000000E427047000029B1064A46
:1012C000D2690243044BDA6104E0034AD2698243E3
:1012D000014BDA61704700000010024029B1064A54
:1012E00092690243044B9A6104E0034A9269824383
:1012F000014B9A61704700000010024001490860EC
:10130000704700004004424230B500210022002412
:1013100000232D4D6D6805F00C0121B1042905D085
:10132000082923D105E0294D056022E0274D0560FD
:101330001FE0254D6D6805F47012234D6D6805F4AE
:101340008034022505EB92421CB9214D55430560BE
:101350000BE01D4D6D6805F400351DB11C4D554366
:10136000056002E0194D5543056002E0174D056028
:1013700000BF00BF144D6D6805F0F0010909154D5F
:101380006B5C0568DD4045600F4D6D6805F4E061FC
:10139000090A104D6B5C4568DD4085600A4D6D683B
:1013A00005F46051C90A0B4D6B5C4568DD40C560B2
:1013B000054D6D6805F44041890B074D6B5CC568B0
:1013C000B5FBF3F5056130BD0010024000127A0054
:1013D00000093D006A1600207A16002010B501466B
:1013E0000022002300204A11012A02D1094C23685F
:1013F00006E0022A02D1074C236A01E0054C636A29
:1014000001F01F02012494401C400CB1012000E0B7
:10141000002010BD0010024000210B4A11700A4A42
:10142000203A82F82010012802D0042808D103E0D5
:101430000121054A117004E00521034A117000E002
:1014400000BF00BF70470000201002400149086043
:10145000704700003C0442420249096A0143014AC4
:101460001162704700100240024909888143014A15
:1014700011807047042800400348008840F01000A5
:101480000149088070470000042800400348008894
:101490004FF6EF710840014908807047042800406A
:1014A00070B500260024002500F07AF8064638487A
:1014B000B6FBF0F437480088A0423CD035490C8098
:1014C00040F2B27510E02846FFF76BF940B1B4F571
:1014D000B77F02D3A4F5B77404E0681C85B206E0B8
:1014E000A4F26D14681C85B2B4F5B67FEBD800BFCA
:1014F00029488580002516E027498888FFF751F99B
:1015000030B1012D04D11D2C01D31D3C09E00CE0AC
:101510002248405DA04203D82048405D241A00E0E4
:1015200003E0681C85B21C2CE6D200BF681C1A4977
:101530008871601CC8711648B6FBF0F100FB11649D
:101540004FF46160B4FBF0F0134908704FF4616030
:10155000B4FBF0F100FB11403C21B0FBF1F00E496F
:1015600048704FF46160B4FBF0F100FB11403C2186
:10157000B0FBF1F201FB1200074988700B46DA79E3
:101580009979988800F028F803490872002070BD06
:1015900080510100801600204C1B00209A3D00085D
:1015A000002103480188001F008841EA004070477D
:1015B0001C28004001460020064A12880A40D0B28A
:1015C000044A121F12880A4012B108B1012000E03B
:1015D0000020704704280040F0B503460C4615462D
:1015E000642093FBF0F0C6B2642093FBF0F700FB9D
:1015F0001730C1B2132E02DD01F16400C1B20846FA
:10160000CF1701EB977701EBA707BAB2072092FB40
:10161000F0F700FB172082B25719601EDFF82CC0CC
:101620001CF80000384482B2CF1701EB9777BF1047
:10163000A1EB87071FB9032C01DA501E82B20720E5
:1016400092FBF0F700FB1720C0B2F0BD8E3D000802
:101650000EB50120FFF7AEFF08B1FFF721FF022012
:10166000FFF7A8FFA0B10220FFF7FEFEFFF718FF6B
:101670000A48807809494978084A1278CDE900215A
:1016800002900648C3798279818805A0FEF7E8FDBB
:101690000520FFF7E9FE00F015F90EBD4C1B0020F8
:1016A000416C61726D2054696D653A25642D256425
:1016B0002D25642025643A25643A25640A0000003B
:1016C00029B1064A12880243044B1A8004E0034AF7
:1016D00012888243014B1A807047000000280040A6
:1016E0001CB5002401214FF0C050FFF7E7FD012099
:1016F000FFF7DCFD0420FEF703FF45F250018842AE
:1017000040D0FEF7F5FE0120FFF786FE04E0601CE6
:10171000C4B20A2001F0B8FA4120FFF75FFE08B911
:10172000FA2CF4DBFA2C01DB01201CBD4FF4807095
:10173000FFF792FE0120FFF789FE00F0C3F800F0EA
:10174000CBF801210846FFF7BBFF00F0BBF8FFF71D
:1017500093FE47F6FF7000F0A5F800F0B3F8002004
:10176000202112231D22CDE90010012140F2E57055
:1017700000F026F8FFF78AFE45F250010420FEF73C
:10178000CDFE07E000F0A8F801210846FFF798FF1A
:1017900000F098F800F004F8FFF782FE0020C4E79C
:1017A00008B503208DF8000000208DF801008DF8A9
:1017B000020001208DF803006846FFF7A7F808BD76
:1017C0002DE9F05F06460F4690469946DDE90AABE3
:1017D000002440F2B270864203DB40F633008642BA
:1017E00002DD0120BDE8F09F40F2B2750AE0284614
:1017F000FEF7D7FF10B12048044401E01F4804441D
:10180000681C85B2B542F2DB781EC7B2002510E035
:101810001B48405D40F2A321484304EBC01430460E
:10182000FEF7BFFF18B1012D01D116480444681C12
:1018300085B2BD42ECDBA8F1010040F2A321484390
:1018400004EBC014C9EB4910C0EB092004EB0014F1
:10185000CAEB0A1004EB80045C4401214FF0C05035
:10186000FFF72CFD0120FFF721FD204600F00CF8CA
:1018700000F028F80020B5E70085E2018033E1019F
:101880009A3D00088051010000B50246FFF7F4FDC3
:10189000100C03490880091D0A80FFF7F7FD00BD01
:1018A0001828004000B50246FFF7E6FDC2F30340EA
:1018B00003490880091D0A80FFF7E8FD00BD00000C
:1018C0000828004000BF0348008800F020000028DE
:1018D000F9D0704704280040074800884FF6F77198
:1018E00008400549088000BF0348008800F0080050
:1018F0000028F9D07047000004280040704710B558
:1019000000F002F810BD00000CB50020019000901E
:101910003348006840F480303149086000BF3048E7
:10192000006800F4003000900198401C019000987D
:1019300018B90198B0F5A06FF1D12948006800F4FA
:10194000003010B10120009001E0002000900098CC
:10195000012843D12348006840F010002149086065
:101960000846006820F0030008600846006840F060
:10197000020008601A4840681949486008464068F3
:1019800048600846406840F4806048600846406807
:1019900020F47C1048600846406840F4E810486035
:1019A0000846006840F08070086000BF0C4800687E
:1019B00000F000700028F9D00948406820F00300CA
:1019C000074948600846406840F00200486000BF90
:1019D0000348406800F00C000828F9D10CBD000055
:1019E0000010024000200240042808D14FF0E021FE
:1019F000096941F004014FF0E022116107E04FF066
:101A0000E021096921F004014FF0E02211617047E3
:101A10007047000010B51348006840F001001149FC
:101A2000086008464068104908400E49486008466A
:101A300000680E4908400B4908600846006820F419
:101A4000802008600846406820F4FE0048604FF49B
:101A50001F008860FFF753FF4FF0006004490860E3
:101A600010BD0000001002400000FFF8FFFFF6FE6E
:101A700008ED00E010B50121880700F0D0F858B358
:101A80000121880700F0BCF814480068C0431449DD
:101A9000C1F894011348D0F89401C0431149C1F82A
:101AA000940111480078401C0F4908700F480078D5
:101AB000401C0E4908700C480078022802DD002006
:101AC0000949087009480078022805D10120084911
:101AD000087000200549087010BD00009481214263
:101AE000008021420000234241160020821600207F
:101AF000421600207FB505460C4601210846FFF737
:101B0000DDFBADF80850ADF804400020ADF80A0048
:101B1000ADF8060001A94FF0804000F09BF80122CB
:101B20001146900700F08CF81C208DF80000002072
:101B30008DF8010003208DF8020001208DF80300CC
:101B40006846FEF7E3FE0121880700F05CF87FBDE0
:101B500010B501210C4800F062F8A0B101210A483B
:101B600000F04EF80020FEF757FE084908700848BC
:101B7000007808490870064840780749087004480A
:101B800080780649087010BD00040040431600200C
:101B90004C1B00204A160020491600204816002041
:101BA0007FB505460C4601210220FFF787FBADF803
:101BB0000850ADF804400020ADF80A00ADF806006A
:101BC00001A90E4800F046F8012211460B4800F02A
:101BD00037F81D208DF8000000208DF8010003204B
:101BE0008DF8020001208DF803006846FEF78EFE96
:101BF0000121024800F007F87FBD0000000400400A
:101C0000CA430282704721B1028842F00102028079
:101C100004E002884FF6FE731A400280704730B528
:101C20000246002000230024158A05EA0103958955
:101C300005EA010413B10CB1012000E0002030BD21
:101C40001AB183890B43838102E083898B438381AB
:101C500070470000002202881D4B98420ED01D4B99
:101C600098420BD0B0F1804F08D01B4B984205D062
:101C70001A4B984202D01A4B984204D14FF68F73F8
:101C80001A404B881A43174B984207D0164B98427C
:101C900004D04FF6FF431A40CB881A4302808B884A
:101CA00083850B8803850A4B98420BD0094B9842D9
:101CB00008D00E4B984205D00D4B984202D00D4BE8
:101CC000984201D10B7A038601238382704700007A
:101CD000002C014000340140000400400008004096
:101CE000000C004000100040001400400040014083
:101CF000004401400048014038B500201F233F2226
:101D0000014600901046FFF74EF81F233E22194669
:101D10003F20FEF7E9FE012003234022002100902E
:101D20001046FFF740F801203D2340221146009065
:101D30001046FFF738F801202023032219460090AF
:101D40000020FFF730F8012020237B221946009065
:101D50008020FFF728F803221F213F20FEF7B8FF5D
:101D6000012000904048807800EB40004200202392
:101D70001F213F20FEF72CFE3B48807848B9002009
:101D800020234FF4B1721F2100903F20FEF720FE68
:101D90000CE00020009034488078401E00EB4000AA
:101DA000420020231F213F20FEF712FE0120009059
:101DB0002D48407800EB400042001A231F213F20AD
:101DC000FEF706FE2848407848B900201A234FF451
:101DD000B1721F2100903F20FEF7FAFD0CE00020B9
:101DE000009021484078401E00EB400042001A233A
:101DF0001F213F20FEF7ECFD1B4800780C2190FBD3
:101E0000F1F201FB1200C0EB00104400012014238A
:101E100022461F2100903F20FEF7DAFD124800788D
:101E20000C2190FBF1F201FB120048B900201423B1
:101E30004FF4A5721F2100903F20FEF7C9FD12E06C
:101E400009480078401E0C2190FBF1F201FB1200C2
:101E5000C0EB001044000020142322461F210090F4
:101E60003F20FEF7B5FD38BD4C1B00201CB52848AF
:101E700000780A2190FBF1F000EB8000254901EB8E
:101E800040140120382316220821CDE90040022009
:101E9000FFF73AF91E4800780A2190FBF1F201FBA6
:101EA000120000EB80001B4901EB40140120382395
:101EB00016220821CDE900402120FFF725F914481A
:101EC00040780A2190FBF1F000EB8000114901EB12
:101ED00040140120382316220821CDE90040492072
:101EE000FFF712F90A4840780A2190FBF1F201FB52
:101EF000120000EB8000074901EB40140120382359
:101F000016220821CDE900406620FFF7FDF81CBD30
:101F10004C1B00200010002008B50E480078012856
:101F200008D10020362344220E2100903A20FEF7EB
:101F3000CBFF0DE007480078022809D102221321C7
:101F40003F20FEF7C5FE022234213F20FEF7C0FEEF
:101F500008BD0000411600207CB5E84840780A2101
:101F600090FBF1F201FB1200E549097888427DD02F
:101F7000E24840780A2190FBF1F0E2490978884272
:101F8000F5D0DE4800780A2190FBF1F201FB120047
:101F9000DD4909788842EAD0D84800780A2190FBC8
:101FA000F1F0DA49097888427ED03C2479E0D348C0
:101FB00040780A2190FBF1F201FB120000EB800057
:101FC000D34901EB40150120382316222146CDE9E3
:101FD00000506620FFF798F8C84840780A2190FB27
:101FE000F1F000EB8000CA4901EB401501203823D5
:101FF00016222146CDE900504920FFF785F8BF4859
:1020000000780A2190FBF1F201FB120000EB800046
:10201000BF4901EB40150120382316222146CDE9A6
:1020200000502120FFF770F8B44800780A2190FB97
:10203000F1F000EB8000B64901EB40150120382398
:1020400016222146CDE900500220FFF75DF800205E
:102050000090601EC3B27C2200216620FEF734FF90
:1020600000200090601EC3B25F2200E01CE000214F
:102070004920FEF729FF00200090601EC3B23722DE
:1020800000212120FEF720FF00200090601EC3B237
:10209000182200210220FEF717FFFEF7FDFFE01EC9
:1020A000C4B2082C83DC08E1944840780A2190FBF4
:1020B000F1F201FB120092490978884275D08F48ED
:1020C00040780A2190FBF1F08E49097888426CD063
:1020D0008A4800780A2190FBF1F201FB12008A493C
:1020E0000978884261D03C245BE0844840780A212A
:1020F00090FBF1F201FB120000EB8000844901EB40
:1021000040150120382316222146CDE900506620D3
:10211000FEF7FAFF794840780A2190FBF1F000EBD6
:1021200080007B4901EB401501203823162221460F
:10213000CDE900504920FEF7E7FF704800780A21FA
:1021400090FBF1F201FB120000EB8000704901EB03
:1021500040150120382316222146CDE900502120C8
:10216000FEF7D2FF00200090601EC3B27C22002147
:102170006620FEF7A9FE00200090601EC3B25F2219
:1021800000214920FEF7A0FE00200090601EC3B28F
:10219000372200212120FEF797FEFEF77DFFE01E8B
:1021A000C4B2082CA1DC88E0FFE7544840780A213B
:1021B00090FBF1F201FB12005149097888424BD0A3
:1021C0004E4840780A2190FBF1F04E490978884248
:1021D00042D03C243DE0494840780A2190FBF1F28E
:1021E00001FB120000EB8000494901EB4015012082
:1021F000382316222146CDE900506620FEF784FFE1
:102200003E4840780A2190FBF1F000EB8000404905
:1022100001EB40150120382316222146CDE900505C
:102220004920FEF771FF00200090601EC3B27C229F
:1022300000216620FEF748FE00200090601EC3B219
:102240005F2200214920FEF73FFEFEF725FFE01E3A
:10225000C4B2082CBFDC30E0284840780A2190FB4B
:10226000F1F201FB120026490978884225D03C246E
:1022700021E0224840780A2190FBF1F201FB120094
:1022800000EB8000224901EB401501203823162283
:102290002146CDE900506620FEF736FF0020009071
:1022A000601EC3B27C2200216620FEF70DFEFEF701
:1022B000F3FEE01EC4B2082CDBDC104840780A2193
:1022C00090FBF1F201FB12000D4908700B484078B9
:1022D0000A2190FBF1F00B490870084800780A21A8
:1022E00090FBF1F201FB12000749087003480078E7
:1022F0000A2190FBF1F0054908707CBD4C1B0020C1
:1023000044160020451600204616002047160020DF
:102310000010002010B540F225511D4800F04AF889
:1023200010B31B4800F002F9C4B21A48008800F448
:102330000040C8B91748008800F4804060B10A2CFA
:1023400003D000201349088020E01248008840F4A0
:1023500000401049088019E00D2C06D10D48008876
:1023600040F480400B49088010E00A480088C0F320
:102370000D0009490C5407480088401C0549088095
:1023800008460088C72801DD0020088010BD000035
:1023900000380140681600208416002021B182898F
:1023A00042F40052828104E082894DF6FF731A40A4
:1023B0008281704770B5024600240023002500206A
:1023C00040F66A16B14200D100BFC1F3421501F0D8
:1023D0001F03012606FA03F3012D02D1968933402B
:1023E00006E0022D02D1168A334001E0968A33407E
:1023F0000C12012606FA04F41688344013B10CB10D
:10240000012000E0002070BDF0B503460024002646
:102410000025002040F66A17B94200D100BF1846D7
:10242000C1F3421401F01F06012707FA06F5012C3B
:1024300001D10C3004E0022C01D1103000E0143046
:102440001AB107682F43076002E00768AF430760CF
:10245000F0BD00002DE9F04786B005460E46002489
:10246000A24600BFA1460027B08900B100BF2F4699
:102470002C8A4CF6FF700440F08804432C82AC890F
:102480004EF6F3100440B08831890843718908433F
:102490000443AC81AC8A4FF6FF400440B08904434A
:1024A000AC8201A8FEF730FF1F48874202D1DDF859
:1024B00010A001E0DDF80CA0A88900F4004040B1B4
:1024C0000AEBCA0000EB0A1031684900B0FBF1F8D2
:1024D00007E00AEBCA0000EB0A1031688900B0FB84
:1024E000F1F86420B8FBF0F004012009642101FB3D
:1024F0001089A88900F4004040B1322000EBC900E7
:10250000B0FBF1F000F00700044308E0322000EBDC
:1025100009106421B0FBF1F000F00F0004432C819E
:1025200006B0BDE8F0870000003801400146888809
:10253000C0F30800704700BFFEE7490050EAC12021
:1025400018BF04204A0D18BF40F0010040F2FF728E
:10255000B2EB515F08BF40F00200012808BF052020
:10256000704700002DE9F74F144694B00021C4E9EC
:1025700002111599079121F00045C9498D4206DCE9
:102580001599C4E9000117B00020BDE8F08FC549D6
:10259000DFF814A3A9423CDD0799C44E0029C44FBB
:1025A000C44A1599534619DD01F080F8554506D007
:1025B000C14AC24B01F07AF8C4E900010AE04FF0C9
:1025C000D352BE4B01F072F832463B4601F06EF832
:1025D000C4E9000117B00120BDE8F08F00F0FAFC5B
:1025E000554506D0B44AB54B00F0F4FCC4E90001EF
:1025F0000AE04FF0D352B14B00F0ECFC32463B46C0
:1026000000F0E8FCC4E9000117B04FF0FF30BDE86E
:10261000F08FAB49A942159978DB21F00041834640
:102620008846A84AA84B00F037FF0022A74B00F0CD
:10263000D1FC00F0D7FE099000F003FF06460F46DC
:102640009C4A534600F028FF43465A4601F022F8C0
:1026500080468A46984A994B3046394600F01CFF1E
:102660002A0D01250B924246534601F013F8032D23
:10267000C4E9000139D00B98C1F30A51401A05EBA7
:1026800045111139814230DA9148C346784400EB54
:102690000510CDF80CA00C90D0E900233046394647
:1026A00000F0FAFE02460B46049106905846039944
:1026B00000F0FCFF80468A4602460B4658460399C6
:1026C00000F0F4FF049B069A00F0F0FF83460C989C
:1026D00003913946D0E90223304600F0DDFE5A4628
:1026E000039B00F0E3FF6D1CBDE707980028A2BF25
:1026F000099817B0BDE8F08F616881F00041616012
:10270000099817B04042BDE8F08FFFE7844615985E
:10271000C1F31301C0F30A50A0F2F5304FEA60187C
:1027200000F01F06C6F120001390002006900790CD
:1027300041F4801E05206D4676B1664A08EB000123
:102740007A4452F8213002EB8101B3404A68139970
:1027500022FA01F1194305E05F4908EB00027944D0
:1027600051F82210A1FB0E27A1FB0C131A449A4228
:1027700034BF0123002303EB070A05EB8003D3E9F1
:1027800001B70F448F4234BF0121002193448B4491
:1027900011B1934502D903E0934501D2012100E034
:1027A0000021C3E901B7514445F82010011EA0F1F2
:1027B0000100C1DC0298059F00F10050800F1290CB
:1027C0000298DDE90356800000F03BFE8346284670
:1027D0000D9100F04DFE6FF01D0201F092FACDE96F
:1027E0000E01304600F044FE6FF03D0201F089FA20
:1027F00080468A46384600F03BFE6FF05D0201F0ED
:1028000080FA074642465346119100F0E3FBDDE9AA
:102810000E2300F0DFFB5A460D9B00F0DBFB00258A
:102820000E465A4628460D9B00F040FFDDE90E2378
:1028300000F03CFF4246534600F038FF3A46119BF9
:1028400000F028FFDFF898A0244A534600F024FE49
:1028500007468846234A244B3146284600F01CFE92
:102860003A46434600F0B6FB074688464FF0A8427A
:1028700053463146284600F00FFE3A46434600F0E4
:10288000A9FB159A12F0004F04D0129A81F0004172
:1028900052421292C4E90001129817B0BDE8F08FBD
:1028A000FB21E93F7CD90240FB21F93F7370032EE5
:1028B0008A19A33B000040543163621A61B4D03DD1
:1028C000FB21394183C8C96D305FE43F0000E03F20
:1028D00048170000C4160000A6160000182D445426
:1028E000FB21F93D3326A611460B113C2DE9FF4D86
:1028F00021F0004807460C46B8F1795F08DA00F08D
:1029000071FD002801BF0020324904B0BDE8F08D00
:102910003A4623461046194600F0BEFD05460246DB
:102920002D480E460B460621784400F05DF82A46F5
:10293000334600F0B1FDDDE9022382468B4638467E
:10294000214600F0A9FD04460F4652465B46284644
:10295000314600F0A1FD22463B4600F0A7FE0746A7
:102960008A464FF0FF322846314601F0CAF91B4A29
:1029700090450ADA3A46534600F098FE04B0002229
:10298000BDE8F04D134B00F085BE154A4245A8BF87
:10299000A8F500154FF00004B8BF124D22462B4693
:1029A00000F084FE0646884622462B460020094950
:1029B00000F07CFE04460D463A46534630464146FA
:1029C00000F074FE04B022462B46BDE8F04D00F046
:1029D00061BE00000000F03F7C1400003333D33FA1
:1029E0000000E93F0000D23F2DE9F0414F1E00EB0F
:1029F000C7010446D1E9000115461E4637F006021C
:102A00000DD02A46334600F047FD7F1E04EBC70376
:102A1000D3E9002300F0DEFA37F00602F1D1022FED
:102A200025D0042F13D0062F18BFBDE8F0812A4609
:102A3000334600F031FDD4E90A2300F0CBFA2A46F0
:102A4000334600F029FDD4E9082300F0C3FA2A46F2
:102A5000334600F021FDD4E9062300F0BBFA2A46F4
:102A6000334600F019FDD4E9042300F0B3FA2A46F6
:102A7000334600F011FDD4E9022300F0ABFA2A46F8
:102A8000334600F009FDD4E90023BDE8F04100F031
:102A9000A1BA00002DE9FF4D054621F0004084B0A9
:102AA0000C46B0F1795F0BDA2846FFF746FD0428A3
:102AB00008BF00F06FF8284608B02146BDE8F08D49
:102AC0002A460B46104600F0E7FC06460F462A460B
:102AD000234600F0E1FC804626488A4632463B46C3
:102AE00005217844FFF780FF83461098029160B378
:102AF000214A224B4046514600F0CEFCCDE9000170
:102B00005A4640465146029B00F0C6FC8246884623
:102B1000DDE906014FF0FF3201F0F3F8524643467B
:102B200000F0C4FD32463B4600F0B6FCDDE906236A
:102B300000F0BCFDDDE9002300F0B8FD08B02A4636
:102B40002346BDE8F04D00F0A5BD0B465A46304681
:102B5000394600F0A1FC084A084B00F03BFA424617
:102B6000534600F099FC08B02A462346BDE8F04DD4
:102B700000F030BABA130000495555555555C5BF38
:102B8000012201F0BEB8002213461046114600F0A3
:102B9000D1BA0000024A0020110701F0B2B80000CB
:102BA00001FDFFFF00BF704700B5244B21F000423C
:102BB00087B09A42DCBF0022134629DD204B9A429F
:102BC00008D140B94FF00100FDF7CFFBFFF7DBFF65
:102BD00007B000BD03DBFFF7D3FF07B000BD02AABB
:102BE000FFF7C0FC10F0030104BF0DF1080C9CE8D6
:102BF0000F000DD0012001290ED0022914D00DF1B3
:102C0000080C00909CE80F00FFF744FF07B000BDE0
:102C1000FFF76CFE07B000BD0DF1080C00909CE8BA
:102C20000F00FFF737FF05E00DF1080C9CE80F00DF
:102C3000FFF75CFE07B081F0004100BDFB21E93FDA
:102C40000000F07F10B56FF00400FEF7CDFE0A48DB
:102C500000680A49B0FBF1F009490870084600789D
:102C600000EB4001C1EBC0104FF6FF7101EAC0005C
:102C70000449088010BD00004C16002000127A00A4
:102C800060160020621600200146114A12884A434D
:102C90004FF0E0235A6100229A611A46126942F00D
:102CA00001021A6100BF4FF0E022106900F001023A
:102CB0001AB100F48032002AF5D04FF0E0221269F8
:102CC00022F001024FF0E0231A6100229A6170475E
:102CD0006216002000BF054A128802F04002002A56
:102CE000F9D0C2B2014B1B1D1A8070470038014059
:102CF00008B5FFF7A7FF4FF4A060FDF73FFE4FF4C4
:102D0000E13000F0E5F84FF47A70FFF7BDFF41F6CF
:102D10001F4141F28730FEF7EDFE41F61F4140F2C0
:102D2000F310FEF73DFFFEF7DBFCFDF7C5FDFDF7F9
:102D300055FDFEF71FF9FEF7AFF9FDF729FE334801
:102D400040780A2190FBF1F201FB12003049087033
:102D50002E4840780A2190FBF1F02E4908702B484C
:102D600000780A2190FBF1F201FB12002A49087059
:102D7000264800780A2190FBF1F02849087043E0CA
:102D8000274808238022002100900846FDF770FEA6
:102D900024480078012804D002280BD0032832D11F
:102DA00030E0214808238022002100900846FDF7EA
:102DB0005FFE28E0FDF7C0FB4FF44870FFF764FFAB
:102DC000FFF754F800204023802201460090FEF7D0
:102DD0007BF814E01548007840B9FEF75DF9FFF77D
:102DE000BBF8FFF743F8FFF797F803E0FEF754F955
:102DF000FEF782FF0B480078012800D100E0E9E7E8
:102E000000BF00E000BF00BFBAE700004C1B00207D
:102E100044160020451600204616002047160020C4
:102E2000000C002043160020000000204016002067
:102E300000B5254B21F0004287B09A4203DC002206
:102E4000134600922BE0214B9A4208D140B94FF033
:102E50000100FDF78AFAFFF796FE07B000BD03DB1D
:102E6000FFF78EFE07B000BD02AAFFF77BFB10F054
:102E700003014FF001000DD0012914D002291AD00E
:102E80000DF1080C9CE80F00FFF730FD07B081F052
:102E9000004100BD0DF1080C00909CE80F00FFF709
:102EA000F9FD07B000BD0DF1080C9CE80F00FFF71D
:102EB0001DFD07B000BD0DF1080C00909CE80F004F
:102EC000FFF7E8FDE2E70000FB21E93F0000F07FAB
:102ED00010B586B00446012144F20400FEF7FEF965
:102EE0004FF40070ADF8140003208DF81600182080
:102EF0008DF8170005A91C48FDF771FB4FF48060A1
:102F0000ADF8140004208DF8170005A91648FDF748
:102F100066FB25208DF8000003208DF801008DF858
:102F2000020001208DF803006846FDF7EFFC0194D4
:102F30000020ADF80800ADF80A00ADF80C00ADF8BF
:102F400010000C20ADF80E0001A90848FFF782FA26
:102F5000012240F225510548FFF756FA01210348A6
:102F6000FFF71CFA06B010BD000801400038014010
:102F700021F00042A2F16052B2F5801F01F000433F
:102F800028BFD2F17F6C0BD95FEA001C43EAC20272
:102F900042EB507018BF704728BF20F00100704707
:102FA000B2F5801FBCBF184670474FEA410C1CF5B4
:102FB000001F02D2084600F0F8BD70B500F016FB05
:102FC00000000089FFF7F6BF4FF00040A0F5800039
:102FD0007047000010B591EA030F48BF83F000432B
:102FE00000F16C83841A71EB030C05D2121943EBC8
:102FF0000C03001B61EB0C01DFF824E14FEA1154D4
:10300000A4EB135C1EEA430F18BF9EEA445F73D023
:1030100023EA0E03DCF1200E21EA045143F480136D
:1030200032D322FA0CFE10EB0E0023FA0CFE41EB19
:103030000E01CCF1200E03FA0EFE10EB0E0051F142
:103040000001B1F5801FCCF1200E32D201EB04510A
:1030500012FA0EF2BDE8104058BF7047401C38BF4E
:103060005FEA420218BF7047002814BF20F0010039
:1030700041F100014FEA410313F5001F38BF7047CB
:10308000A1F1C04100F000BB012A43EB0302ACF107
:10309000200CDCF11F0E32BF4FF0000E23FA0CF3B0
:1030A00010EB030041EB0451B4EB115FD0D0A1EB66
:1030B000045101F5801149085FEA300001EB045129
:1030C0000ED350F1000038BF12FA0EFE08D1BDE851
:1030D0001040C9E7401C38BF5FEA4202CAD1C3E7CB
:1030E000BDE810404FEA410313F5001F38BF704799
:1030F000A1F1C04100F0C8BA9EEA445F08D011EACD
:103100005E0FBDE8104004BF01F000410020704791
:10311000BDE8104070B500F069FA00BF64FBBE3E28
:103120000000E0FF02494FF0000000F0B8BD00BF12
:103130000000F87F2DE9C04130B4DFF8A0C23CEABE
:10314000111418BF3CEA131400F0EC8081EA030567
:103150001CEA111444EAD57418BF1CEA131500F0D8
:10316000C780A4EB05044FF0004545EAC12145EABC
:10317000C32341EA505143EA525304F17F74994208
:1031800004F500344FEAC0204FEAC22208BF904243
:1031900000F09C804FEA13650FF24016765D4FEA0F
:1031A000134506FB05F7C7F1807706FB07F74FEAE3
:1031B000D737A7FB03687642C8F58038A7FB06CE51
:1031C00038BFA8F1010807FB08E64FF0000EA6FB88
:1031D000028CE6FB03CEDCF1000CCEF1004E38BFD2
:1031E000AEF1010EA6FB0C584FF000074FF00005A2
:1031F000E6FB0E87A1FB08C6A0FB07CE16EB0E066A
:1032000045F10005E1FB076515F1E04E7EBFA4F531
:1032100080345FEA46066D4116F1800745F10005EE
:103220004FEA17274FEA066647EA0567A6F1DE462A
:10323000B6F1805F4FEA15251FD9384624F0010CFE
:1032400005EBC471BCF1FE6F01EB0C1102D8F0BCB0
:10325000BDE8008124425CBF01F5801E9EEAC47F68
:1032600002D4F0BCBDE80081244238D4F0BCA1F106
:10327000C041BDE8004100F007BA4FEAD22242EA5D
:1032800043524FEAD323A7FB02864FEAD02040EAFD
:10329000415007FB03661EEA0E0F4FEAD12105FBE2
:1032A000026658BFA6EB0056B6EB00564FEA520E28
:1032B0004EEAC37E18EB0E0E56EB530EBDD518EB3F
:1032C00002085E417F1C55F10005B6E74FF48015FA
:1032D0004FF000074FF000064FF00008ADE7F0BCDC
:1032E0004FF0000001F1C04101F00041BDE8008154
:1032F00011EA0C1F0CEA131500D00CE013EA0C1FA6
:1033000000F025804FF00000F0BC81EA030101F0DD
:103310000041BDE80081F0BCBDE8004181EA030145
:1033200000F0B2B9F0BCBDE8004170B500F05EF944
:10333000097EFC3E00F007B881EA03014FF000006F
:1033400001F00041704781EA030100F09DB9F0BC33
:10335000BDE800414FF0000021497047FFFDFBF937
:10336000F7F5F4F2F0EEEDEBE9E8E6E4E3E1E0DEB8
:10337000DDDBDAD8D7D5D4D3D1D0CFCDCCCBCAC82A
:10338000C7C6C5C4C2C1C0BFBEBDBCBBBAB9B8B751
:10339000B6B5B4B3B2B1B0AFAEADACABAAA9A8A844
:1033A000A7A6A5A4A3A3A2A1A09F9F9E9D9C9C9B12
:1033B0009A999998979796959594939392919190BD
:1033C0008F8F8E8E8D8C8C8B8B8A8989888887874E
:1033D0008685858484838382828181800000FF07C3
:1033E0000000F87F4FEA41034FEA5353A3F580638F
:1033F000D3F11E03C8BFD3F1210C0CDD4FF0004206
:1034000042EAC12242EA505232FA03FC8CEAE17CE1
:10341000ACEBE1707047102BC4BF0020704703F580
:10342000787CBCF1FF3F04D06FF0004282EA2100BB
:10343000704770B500F0DAF8499224800020704798
:10344000F2E710F0004248BF4042B0FA80F310FAB1
:1034500003F10AD0C3F11D0303F580634FEA415025
:1034600002EB035202EBD12170474FF0000070478E
:10347000B0FA80F310FA03F10AD0C3F11D0303F58B
:1034800080634FEA41504FEA035202EBD12170476B
:103490004FF0000070470000DFF848C170B51CEA2B
:1034A000111E1EBF1CEA13159EEA0C0F95EA0C0FA5
:1034B00000F06F8081EA030423EA4C134EEAD47EC5
:1034C00021EA4C1141F4801143F48013AE44A1FB76
:1034D000024CA0FB0365AEF17F7E361955EB0C055F
:1034E000A1FB034C4CF10003A0FB021C16EB0C06E5
:1034F000654153F10003094218BF46F0010613F479
:10350000007F0BD14FEA03314FEA0530340341EA23
:10351000155140EA16506FF003020AE04FEAC3214A
:103520004FEAC520F40241EA555140EA56506FF087
:10353000020202EB2E4201EB025585EACE710AD05F
:103540005FEA440C18BF24F0004450F1000041F140
:10355000000120EAD47040F2FE7C624500D270BDCA
:10356000A84214BF4FF080444FF04044002E08BFE3
:103570000024BEF1806FA8BFA1F1C041BDE870403A
:1035800080F282804FF0000001F1C04101F0004163
:1035900070479EEA0C0F0CEA131518BF95EA0C0F42
:1035A00006D04FF0000081EA030E0EF0004170BD1E
:1035B00000F01CF88900013E00F007B800F009B8DF
:1035C0004FEA430C5FEA5C5C08D081EA030100F03B
:1035D0005BB84FEA410C5FEA5C5CF6D14FF000004B
:1035E000014970470000FF070000F87F0EF1020E4E
:1035F0002EF0030E5EF8046B364205D4012A43EB2D
:10360000030515F5001F12D8012841EB010C1CF52C
:10361000001F0CD80ED14FEAD17C15F5001F0CEB22
:103620004C0C0CF1020C08BF4CEBD37C04E04FF0C7
:10363000080C01E04FEAD37C0CEB4C0526FA05F6AA
:1036400006F00706B6F1040C06D20EEB860CBDE8B8
:1036500070404CF0010C6047DFE80CF0090B0202EF
:103660004FF000414FF00000A1F5002170BD194658
:103670001046012851EB010418BFD4F5001484BF93
:10368000002001F0004170BD0808A0F500114FEACC
:103690003101704791EA030F10B581F000413FF509
:1036A000A1AC83F0004300F009B8000010B591EA26
:1036B000030F48BF83F000433FF594AC841A71EBCD
:1036C000030C07D212198CF0004C43EB0C03001BC7
:1036D00061EB0C01DFF8A4E14FEA1154A4EB135C99
:1036E0001EEA430F18BF9EEA445F00F0B08023EA51
:1036F0006E03524221EA0451C3EB6E0338BF5B1ED6
:10370000DCF1200E25D322FA0CFE10EB0E0043FA5A
:103710000CFE41EB0E01CCF1200E03FA0EFE10EB75
:103720000E0051F10001CCF1200E29D412FA0EF254
:1037300001EB0451BDE8104058BF7047401C1CBF4E
:10374000B2F1004F704700280CBF491C20F0010067
:10375000704712EB020E43EB030218BF4FF0010E4D
:103760004EEA4202ACF1200CDCF11E0E54D943FAB1
:103770000CFE10EB0E0051F1FF31CCF11E0ED5D531
:103780000EF1010E12FA0EFE404141EB010101EB78
:10379000445C5FEA5C5C10D910EBDE7001EB045115
:1037A00038BFBEF1004FBDE8104018BF7047002879
:1037B0000CBF491C20F00100704730D24FEAD42CD6
:1037C00011F5001124F400641BD0B1FA81F20B3A18
:1037D000A41AA41ED2F12003914030FA03F3194336
:1037E000904001EBCC71002C01EB0451BDE810407E
:1037F000A8BF704701F1C0414FF0000001F0004147
:103800007047B0FA80F310FA03F100D110BDE41A4A
:10381000173C4805C90AE4E701EB045110BD491003
:1038200001EB0451BDE810404FEA300002E04FF0D8
:10383000000170474A0008BF0042F8D0B2F5001FEF
:1038400028BF704701F000414FF0000070479EEA2A
:10385000445F07D011EA5E0FBDE8104004BF0021AD
:1038600000207047BDE8104070B5FFF7BFFE00BFF5
:1038700040DFF63E83F00041104670470000E0FF55
:1038800090EA010F48BF81F0004100F19A81421A8D
:103890003CBF801A89184FEAD0524FF07F4C1CEA87
:1038A000410FA2EBD15318BF9CEA026F00F03B809E
:1038B0004FF0004C4CEA00204CEA012121FA03FCB5
:1038C00010EB0C0C1ED202F1FF325FEA1C2040EB21
:1038D000C25038BF70471CF07F0F4FEA400C18BF32
:1038E000BCF17F4F38BF7047C3F12003994008BF38
:1038F00020F00100BCF17F4F38BF7047A0F1C040FD
:1039000000F053B94FEA3C00000A40EBC25028BF18
:103910001CF0FF0F4FEA400CE6D018BFBCF17F4F00
:1039200038BF7047EAE79CEA026F05D010EA5C0FE7
:1039300008BF00F00040704710B500F0F0F800BF7D
:1039400064FBBE3E401058BFC0F14040491058BF14
:10395000C1F140418142EFF30080704710F0004117
:1039600048BF4042B0FA80F310FA03F2C3F19D035E
:103970000BD051EAC35101EB1220530638BF7047F8
:1039800000F1010008BF20F001007047B0FA80F399
:1039900010FA03F2C3F19D030AD0D90501EB1220FE
:1039A000530638BF704700F1010008BF20F0010046
:1039B0007047000050EA010C00F113801CF5000F65
:1039C00058BFBCF5000F01D48842704707D710F5E7
:1039D000000F58BF11F5000F15D488427047894277
:1039E00070471CF5000F04D5BCF5000FF7D58142D8
:1039F00070474FF0807C1CEB400F38BF1CEB410F31
:103A000001D28142704710B500F089F89224490034
:103A10004FF000504FF08051FFF794BF4FF47F0CF0
:103A20001CEAD0121EBF1CEAD11392EA0C0F93EAD3
:103A30000C0F00F0478090EA010F48BF42F48072FB
:103A40004FF0004C4CEA00204CEA012102EB03024B
:103A5000A0FB0113A2F50002002918BF43F00103E7
:103A60005B0028BF4FEA330342EB22425FEA132C8C
:103A70004CEBC2502EBFBCEB436FB2F57C0F7047CE
:103A80004FEA036CBCF1004F08BF20F00100B2F513
:103A90007C0F38BF70470BD582F0FF0212F5803FD4
:103AA000C8BF704700F1C040D8BF00F00040704769
:103AB00000F5000C5FEA4C0C48BF7047B0F1C04005
:103AC00000F073B890EA010F0CEAD11348BF42F43A
:103AD0008072624538BF634504D280EA010000F07D
:103AE0000040704710B500F01AF800BF8900013E91
:103AF00000F007B800F009B85FEA410C5FEA1C6CFF
:103B000008D080EA010000F050B85FEA400C5FEA9C
:103B10001C6CF6D14FF00040A0F5800070470EF10C
:103B2000020E2EF0030E5EF8044B244204D44FEA3A
:103B30004102B2F17F4F11D84FEA4003B3F17F4FFA
:103B40000CD80ED14FEAD07CB2F17F4F0CEB4C0C6D
:103B50000CF1020C08BF4CEBD17C04E04FF0080CD8
:103B600001E04FEAD17C0CEB4C0324FA03F404F09F
:103B70000704B4F1040C06D20EEB840CBDE810402F
:103B80004CF0010C6047DFE80CF0070802024FF030
:103B90000040A0F5800010BD0846420018BFD2F1D9
:103BA000807288BF00F0004010BDFF2141EAD05074
:103BB000C005704790EA010F48BF81F000413FF512
:103BC00066AE421A04D882F00042A0EB0200114413
:103BD0004FEAD0524FF07F4C1CEA410FA2EBD15379
:103BE00018BF9CEA026F4AD04FF0004C4CEA00200C
:103BF0004CEA012121FA03FCB0EB0C0C0FD412F0BB
:103C0000FE0F36D05FEA4C001DD5001240EBC250CB
:103C100038BF70471CF03F0F18BF70470BE0A2F190
:103C200001025FEA1C2040EBC25038BF70471CF015
:103C30007F0F18BF7047C3F12003994014BF401E87
:103C400020F00100704780084FEA122308BF704738
:103C5000B0FA80FCA2EB0C02CCF1280C60FA0CF05C
:103C600093EA122F04BF00EBC25070474FEAC370B3
:103C70007047130A5FEADC1008BF7047F6E79CEA5A
:103C8000026F04D010EA5C0F08BF0020704710B527
:103C9000FFF745FF40DFF63E81F0004070470CF033
:103CA0000F03092B08BF082000F059800A2B0BD006
:103CB000082B18BF704708BF1CF0400F0AD04FF008
:103CC00000004FF0000170471CF0400F18BF4FF08C
:103CD000004070471CF0100F08D020F0704300F037
:103CE0007F4242EAD3014FEA4370704700F06040E0
:103CF00021F07F4242EA000201F07F4040EA727008
:103D000070474FF0FF0C4CF4E06C1CEA11531CBFE1
:103D10009CEA030C9445C2BFDA4201EB02517047A2
:103D2000002B0DD0BCF1000F0FD0002A01F0004194
:103D3000A4BF41F0E04141F07F614FF000007047C7
:103D400001F000414FF00000704750EA01334FF09E
:103D50009B0C18BF4CF0806C7FF4E4A970471CF4F6
:103D6000801F11D01CF4E02F03D06FEACC31490042
:103D700070474FF04050EFF3008222F0704242EA69
:103D8000000282F3008870474FF000007047000384
:103D9000030601040602050003051F1C1F1E1F1E4B
:103DA0001F1F1E1F1E1F00004C5555555555A53F82
:103DB0007751C1166CC156BF9015CB19A001FA3EC0
:103DC000AD529C804F7E92BEC4B1B4BD9EEE213EEA
:103DD000D43888BEE9FAA8BD00004054FB21F93F61
:103DE0003163621A61B4D03D0000601A61B4D03D05
:103DF0007370032E8A19A33B0000002E8A19A33B7F
:103E0000C14920259A837B39000000000000000092
:103E10006E83F9A22915444ED15727FCC0DD34F535
:103E2000999562DB4190433CAB6351FE61C5BBDEBB
:103E30003A6E24B7E0D24D42EA2E49061C92D109CF
:103E40001CEB1DFE3EA729B1F53582E88444BB2E4C
:103E500026709CE9417E5FB439D69139F439538399
:103E60008B5F849C3B28F9BDFF97F81F0F9805DEF8
:103E70008B112FEF1F6D0A5ACF7E366DB709CB27F6
:103E8000663F464F2DEA5F9EC7BA27757BF1E5EB8B
:103E9000F739073DEA92528AB15FFB6B085D8D1FCF
:103EA000A6F810111111813FD561C119A0012ABFD7
:103EB0007DFEB157E31DC73EEB9C2B8AE6E55ABE5B
:103EC0007CD5CF5A3AD9E53DE83E000800000020F5
:103ED000841600006C010008544400088416002079
:103EE000340B0000D00100080238000100076AC04E
:103EF000C0C0E080000110084060F0F0F0E0E07920
:103F0000128079300A010F7FFFFFFEFCF0C08D1395
:103F1000F8FF0D016083300781838387CFFF013075
:103F200005FEFEFF7F01210A3112000D4C8000804A
:103F3000C0E0E0F0F8F8FC7820FA40051E1E1E1FD5
:103F400001417C8006FF0F0703011F4005010307A5
:103F50003F83C33F1F1A0148FA11DB2004F0F8FC2D
:103F6000F421FDB005F8E0C0801C36FC02137F7E12
:103F700001223E01064D1EFC1005070F0F07F4211C
:103F8000F5316B14057F1F3F3F832101123F012153
:103F9000961BFDF81E391B095B86121C6D331F032F
:103FA00095280403071F8456F08604055501030372
:103FB000077E05181900046C010101721F8080F949
:103FC00003110172F001210E5D95030D587A03393A
:103FD0007F18047C3E1FE15004070303F63A8086F5
:103FE000210D257B000A4E0F1F1F3E7CF8F8F0C004
:103FF00089FC08E0F8FEFF3F0F0758032D8A03F9FC
:10400000AA39155D970401447E1DD8030E131FD4F1
:10401000034D75040D112E030E4A030E052E07F0F5
:10402000030113671D7804BC080F1F3F7EFCF8F0E6
:104030000F041D11042DA2030D49FD0335520D1867
:104040006E0631885E1F730446C0AE0E4D038104B8
:1040500031EB395F29EDAA80ED110D3D14031DFAF6
:10406000052F783807040D5B910349EC19EE8101A7
:10407000210F0F65030308043DE4061DE50653F810
:10408000FC01110B3D97070D600D085C0480F0FCEE
:104090006B071DEA061E3F0B04110160051F1F3F41
:1040A0007F140C045BFEF8F084046168C804FFFF11
:1040B000E3EF82E71A0D5B7C063D70065D7F0835F5
:1040C00079358775140C045F7F1F07FD0584040193
:1040D000070F7185111E7F72030E510102063D7795
:1040E00008196B1D570825F23C051F1F0E0CF1081F
:1040F0001D7804790A3F1F0F0D091E0C0006190ECA
:1041000028053F3E7E7E950A43F092395E7EF97720
:104110000AB1E22D7806BD75034D09043D20032642
:10412000F9130E4B1FF20349EE41E411E6910146EB
:104130003F1B4E1F12030D4F0D043EC0F003E2FC67
:104140000130047C7C3C01F27C1A2D12040E46E006
:104150001D0C0A10FE6B4DE50A291B4D79064D8892
:10416000060910960E4BFCF503A1788EF875032D09
:104170008B030215F888014380AE7FD50B3D010506
:1041800011893DF50529107109327F889D98070234
:10419000457F801DDE058405F0F0FCFC0E0D13DC70
:1041A000089380C0F215111933074AFCFF80B10E45
:1041B00035732DED0B2D790796F08F0112340D3CE0
:1041C000F3046D5E0676F8E30117012E07170C7CE9
:1041D0000480C0F09A040D44FF033DDE08423F0115
:1041E0000004143E3E3C013D8D033D0B0421272D70
:1041F000270B0D2402092F80E042063DC20E1D4D03
:104200000D3FFCF866094DCE0D1FFF1F6A0B5F07BF
:104210000F5C07C68089CE076B03C6E0AEB61FB53C
:104220005EF89F066E00A70E2DB8064D350F6F7F06
:104230000F5E095DDC04DDC10E4D680C4DE7061D07
:10424000720FAD7D0A0E143F67030129160213C0D9
:104250001681D54DE30E121C016D7F0F31A3131E85
:104260001E13C53F4D021035413FF0E0B20B3DA794
:104270000F1DA80C7E0323076203012575D9239C1B
:104280000580E0F0FC4A072DD210A1115D7B0C8E59
:10429000C0750473F9F80102131F015D3E0535373F
:1042A0005D1D03219F15E11D31117D440D15E0C5F4
:1042B000AB2DCB0D2DDD0D4D650F463F9E4A007D8C
:1042C0004DFB0F2924DD070C7D94081D97033D2E1F
:1042D000042D30065D15113F7F0FBA068E1FA10613
:1042E0000D14A110E404C0F0FE8BE404C0F8FEA19C
:1042F0003AE04B7C043F0F01EE034280AB4DFA08DD
:10430000711671F1B1FEBDBA035D4911CF0F0FF007
:1043100007A53DBDF309A18BD5D125D66202754510
:10432000722D06071D8208253C4DA3053DA6056D8F
:10433000B408DEF85612AD4A064D500F2D3E056DFD
:10434000D409853E0D1121032EC09611797F298055
:104350008E80860325E45E0713046D86032EFFA27C
:1043600012393A2EF03C137DC20925A86D5F120F59
:1043700014F01F4F05592C6BFEF0221DC103CE0314
:10438000BF03DDC1030212FE0176003A8E83420AAA
:1043900085757D40057FFFFFD00A8F80FC6B0AAEDC
:1043A000011A0FF13E0211FC3E96003FFE0100058E
:1043B0002541419A25B58EC07408AD000519565D9A
:1043C0007D0B36F8A07DBF032EC0EC092DFC124EEC
:1043D0007F20031D2E0A72E0854DB8035D32147CE8
:1043E00004FF033FA80C85E0D60F40DD21031DCF5D
:1043F0000E9D60044DA00562E0A095B45FFEE0A9AB
:10440000064D030D6E8085067D74059DAD0B4D75C3
:10441000042DFD036E87BA0C4F7F0F63041DBE068B
:104420006D9A058E1FF1101DC7043D6E080E1B0707
:10443000560A7C04A24A04920FDC08020304060711
:104440000809A80F1116611A4C05020406082B135F
:044450000000000068
:040000050800021DD0
:00000001FF
