:020000040800F2
:100000009023002015020008510F0008990B0008EA
:10001000710D0008E1060008B92600080000000084
:10002000000000000000000000000000151E000895
:10003000E506000800000000CD190008B120000806
:100040002F0200082F0200082F0200082F020008CC
:100050002F0200082F0200082F0200082F020008BC
:100060002F0200082F0200082F0200082F020008AC
:100070002F0200082F0200082F0200082F0200089C
:100080002F0200082F0200082F0200082F0200088C
:100090002F0200082F0200082F0200082D08000878
:1000A0002F0200082F0200082F0200082F0200086C
:1000B0002F020008152100082F0200082F02000857
:1000C0002F0200082F0200082F0200082F0200084C
:1000D0002F0200080D2300082F0200082F0200083D
:1000E0002F0200082F0200082F0200082F0200082C
:1000F0002F0200082F0200082F0200082F0200081C
:100100002F0200082F0200082F0200082F0200080B
:100110002F0200082F0200082F0200082F020008FB
:100120002F0200082F0200082F0200082F020008EB
:1001300000F002F800F05EF80AA090E8000C82449B
:100140008344AAF10107DA4501D100F053F8AFF278
:10015000090EBAE80F0013F0010F18BFFB1A43F0A5
:1001600001031847F41301001414010010F8013BB7
:100170000A4413F0030408BF10F8014B1D1108BF17
:1001800010F8015B641E05D010F8016B641E01F8C5
:10019000016BF9D1002D15D010F8014B03F00C03C1
:1001A0000C2BA1EB04040ABF10F8013BA4EB831451
:1001B000A4EB032405F1010314F8016B5B1E01F8A5
:1001C000016BF9D5914238BF10F8013BD1D370478C
:1001D0000023002400250026103A28BF78C1FBD850
:1001E000520728BF30C148BF0B6070471FB51FBD05
:1001F00010B510BD00F038F81146FFF7F7FF02F018
:100200006DFB00F056F803B4FFF7F2FF03BC02F0F9
:1002100019FB00000948804709480047FEE7FEE750
:10022000FEE7FEE7FEE7FEE7FEE7FEE7FEE7FEE7A6
:1002300004480549054A064B70470000B5200008F0
:1002400031010008901D002090230020901F002005
:10025000901F00207047704770477047704700003C
:1002600000487047301D00207546FFF7F9FFAE4685
:1002700005006946534620F00700854618B020B5B2
:10028000FFF7D6FFBDE820404FF000064FF0000713
:100290004FF000084FF0000B21F00701AC46ACE82E
:1002A000C009ACE8C009ACE8C009ACE8C0098D469B
:1002B000704710B50446AFF300802046BDE81040FB
:1002C000FFF7A1BF21B1826842F00102826003E022
:1002D000826822F0010282607047000010B5044677
:1002E0001248844208D10121401501F09DFB0021F4
:1002F000601501F099FB17E00D48844208D10121F7
:10030000001501F091FB0021201501F08DFB0BE0A1
:100310000848844208D10121C80301F085FB00216F
:100320004FF4004001F080FB10BD000000240140AC
:1003300000280140003C0140014600208A6802F08C
:1003400004020AB1012000E0002070470146C86C99
:1003500080B270470246002013680B400BB10120A9
:1003600000E000207047014600208A6802F0080281
:100370000AB1012000E000207047000030B50246BD
:100380000020002350680F4C20400D790C6844EA8F
:1003900005242043506090680B4C2040D1E9025462
:1003A0002C434D7944EA450420439060D06A20F400
:1003B00070000C7C641EE4B2234340EA0350D06218
:1003C00030BD0000FFFEF0FFFDF7F1FFF0B5044681
:1003D0000D4600200021092D11DDE068A5F10A0677
:1003E00006EB4607072606FA07F18843A5F10A0639
:1003F00006EB460603FA06F10843E0600CE02069CC
:1004000005EB4507072606FA07F1884305EB450685
:1004100003FA06F108432061072A0FDA606B561EC3
:1004200006EB86071F2606FA07F18843561E06EBE1
:10043000860605FA06F10843606322E00D2A0FDA0A
:10044000206BD61F06EB86071F2606FA07F18843A6
:10045000D61F06EB860605FA06F10843206310E076
:10046000E06AA2F10D0606EB86071F2606FA07F1E1
:100470008843A2F10D0606EB860605FA06F108434D
:10048000E062F0BD816841F008018160704721B1F0
:10049000826842F4A002826003E0826822F4A00233
:1004A00082607047816841F00401816070470000FC
:1004B00000B587B001214FF4037001F0A5FA4FF4A5
:1004C000004001F085FA0320ADF8040000208DF80B
:1004D000070001A91D4800F0B5FA4FF44070ADF8CF
:1004E000040000208DF8070001A9194800F0AAFABD
:1004F0001848FFF7F3FE002002908DF80C008DF8ED
:100500000D004FF4602004900020059001208DF82C
:10051000180002A90F48FFF731FF01210D48FFF72E
:10052000D1FE0C48FFF7AEFF00BF0A48FFF71BFFE4
:100530000028FAD10748FFF7B5FF00BF0548FFF7CD
:10054000FBFE0028FAD107B000BD00000008014002
:10055000000C0140002401407CB50024002500F07F
:10056000A9FEA6E0E1B201232C22002000F0BAFF90
:10057000012001F0D3FA06280CD15DB9E1B20123C4
:100580002522002000F0AEFF0125A41E002C1ADA5F
:10059000062418E0012001F0C1FA07280CD15DB94A
:1005A000E1B201232522002000F09CFF0125A41CBC
:1005B000062C08DD002406E0012001F0AFFA10B996
:1005C000012D00D10025204604EBD0714910491CB3
:1005D0003B4A117010460078012808D100201023F2
:1005E00038A201460090184601F09EF907E001206C
:1005F000102334A200210090184601F095F93048EC
:100600000078022808D1002010232FA20221009098
:10061000184601F089F907E0012010232AA20221DF
:100620000090184601F080F925480078032808D189
:100630000020102325A204210090184601F074F92F
:1006400007E00120102321A204210090184601F0A8
:100650006BF91B480078042808D1002010231CA245
:1006600006210090184601F05FF907E001201023F1
:1006700017A206210090184601F056F901200C211E
:10068000CDE900100E48027801230621602001F018
:1006900001F901200C230FA206210090662001F031
:1006A00043F901200C230CA2062100906C2001F0DC
:1006B0003BF90A48807801283FF454AF7CBD000024
:1006C0001B1C0020313A0000323A0000333A00008F
:1006D000343A00002F00000034000000181C0020F5
:1006E00000BFFEE77047000010B54E4800780028B4
:1006F0006FD14D48807888BB01230722022130202A
:1007000000F044FF012358220621102000F0EAFEE9
:10071000012359220621202000F0E4FE01235C225F
:100720000621302000F0DEFE01235D22062140205C
:1007300000F0D8FE01235A220621502000F0D2FEFC
:1007400001235B220621602000F0CCFE0020364908
:1007500088704FF47A7002F09BF835E0FFE732487A
:100760008078012830D1012308220221302000F0B6
:100770000DFF012358220621102000F0B3FE0123B3
:1007800059220621202000F0ADFE01235C22062123
:10079000302000F0A7FE01235D220621402000F05A
:1007A000A1FE01234D220621502000F09BFE0123D3
:1007B0004E220621602000F095FE01201A49887023
:1007C0004FF47A7002F064F800F074FD01201549CE
:1007D00008701448007801280FD11348807830B190
:1007E000012326220021084600F07CFE05E00123BB
:1007F00025220021084600F075FE01232122002158
:10080000102000F06FFE012305220021202000F0BF
:1008100069FE0123562200216F2000F063FE0020B4
:1008200010BD0000251C00201B1C002010B50A2054
:1008300002F02EF83748006828B9F0203649887051
:100840001020087060E03348001F006800285BD06B
:1008500030480C380068002841D12F480078102813
:1008600003D120202C4908704EE02B480078202826
:1008700021D130202849087008464078052818D230
:10088000DFE800F003070B0F1300002022498870F7
:1008900010E00120204988700CE002201E49887079
:1008A00008E003201C49887004E004201A4988707D
:1008B00000E000BF28E018480078302824D116480E
:1008C0008078052809D2DFE800F003040506070058
:1008D00004E003E002E001E000E000BF14E00D48A6
:1008E0000838006880B90C480078202803D110200F
:1008F0000949087008E008480078302804D1F02041
:1009000005498870202008704FF4707000F006F8D8
:1009100010BD000024012242181C0020014908607B
:100920007047000014040140002123498279002A05
:100930003AD00A46126803689A430B461A600A1DA9
:10094000126803689A430B1D1A60027911440A6801
:1009500003681A430A60184A0832126803689A4307
:10096000154B08331A601A1D126803689A43124B1C
:100970000C331A604279102A0ED11A1F12680368CC
:100980001A430D4B08331A601A1D126803681A4384
:10099000094B0C331A600DE00749427911440A688B
:1009A00003681A430A6005E0027911440A68036883
:1009B0009A430A60704700000004014010B519E036
:1009C0000F488078052813D2DFE800F00306090CF1
:1009D0000F0000F049FB0CE0FFF7BEFD09E001F05D
:1009E0006DFE06E001F0A4FD03E001F089FA00E0ED
:1009F00000BF00BF024800783028E1D010BD0000E1
:100A0000181C002030B500228B071C0F0F2303FA9F
:100A100004F20B4B8C1053F824309343084C8D1088
:100A200044F8253023468C1053F824308C07240FCB
:100A300000FA04F42343024C8D1044F8253030BDF5
:100A4000080001402DE9F041024600250026002063
:100A500000230024002791F803C00CF00F0591F843
:100A600003C00CF0100CBCF1000F03D091F802C0D1
:100A70004CEA050591F800C0BCF1000F31D01468B4
:100A800000202BE04FF0010C0CFA00F3B1F800C08D
:100A90000CEA03069E4220D183004FF00F0C0CFAA3
:100AA00003F7BC4305FA03FC4CEA040491F803C0C5
:100AB000BCF1280F06D14FF0010C0CFA00FCC2F873
:100AC00014C00AE091F803C0BCF1480F05D14FF003
:100AD000010C0CFA00FCC2F810C0401C0828D1D34D
:100AE0001460B1F800C0BCF1FF0F34DD5468002081
:100AF0002EE000F1080C4FF0010808FA0CF3B1F8F1
:100B000000C00CEA03069E4221D183004FF00F0C77
:100B10000CFA03F7BC4305FA03FC4CEA040491F811
:100B200003C0BCF1280F05D100F1080C08FA0CF83D
:100B3000C2F8148091F803C0BCF1480F07D100F14E
:100B4000080C4FF0010808FA0CF8C2F81080401C9D
:100B50000828CED35460BDE8F0814161704701613F
:100B60007047000010B504460723012221460948BA
:100B7000FFF72CFC01210748FFF789FC00BF022189
:100B80000448FFF7E7FB0028F9D00248FFF7DEFB37
:100B900010BD00000024014000BFFEE701464906E9
:100BA000084A926942F00102064B9A61064A52686D
:100BB00022F0E062044B5A601A4652680A435A60B7
:100BC0007047000000100240000001400EB500F028
:100BD00033F80121084600F017FF06210220FFF735
:100BE00011FF07210220FFF70DFF08210220FFF768
:100BF00009FF09210220FFF705FF4FF470700190F3
:100C000000208DF808000C208DF8090001208DF8D7
:100C10000A0001A8FFF788FE17208DF800000320C6
:100C20008DF8010002208DF8020001208DF80300EC
:100C3000684600F0FDFA0EBD08B50121102000F055
:100C4000E3FE4FF47070ADF8000048208DF803000B
:100C500069460248FFF7F6FE08BD0000001001409B
:100C600008B50121302000F0CFFE0420ADF80000CF
:100C700010208DF8030003208DF8020069460D480E
:100C8000FFF7E0FE04210B48FFF769FF4FF4806097
:100C9000ADF8000010208DF8030003208DF802004D
:100CA00069460548FFF7CEFE4FF480610248FFF722
:100CB00056FF08BD001401400010014010B500F0BF
:100CC000F9FA00220321104600F0BEFB47E00123A1
:100CD00054220621002000F005FCFFF705FD01234A
:100CE00057220621702000F0FDFB1F4840780A21A2
:100CF00090FBF1F4224602212C2000F0E7FC1A4878
:100D000040780A2190FBF1F201FB120422460221F5
:100D1000342000F0DBFC144880780A2190FBF1F4C9
:100D200022460221442000F0D1FC0F4880780A219D
:100D300090FBF1F201FB1204224602214C2000F04C
:100D4000C5FC0948C07828B10A2202213C2000F0E5
:100D5000BDFC04E00B2202213C2000F0B7FC03485C
:100D600000781028B3D010BD301C0020181C0020C3
:100D700000BFFEE708B500F09DFAD1E0012326226E
:100D80000021084600F0AEFB0123212200211020A3
:100D900000F0A8FB012305220021202000F0A2FB87
:100DA0000123042200216F2000F09CFB01231F225D
:100DB0000621002000F096FB0123202206211020AE
:100DC00000F090FB012353220621702000F08AFBE3
:100DD000012305220221002000F0D8FB0123062276
:100DE00002215F2000F0D2FB50480068052857D24E
:100DF000DFE800F003122534430001230022022122
:100E0000302000F0C3FB0120102349A206210090EE
:100E1000302000F089FD44E001231A4602213020F1
:100E200000F0B4FB012341220621302000F05AFBE0
:100E3000012342220621402000F054FB31E001232F
:100E400002221146302000F0A1FB012010233AA21B
:100E500006210090302000F067FD22E001230322EC
:100E60000221302000F092FB0120102334A2062141
:100E700000902C2000F058FD13E0012304220221F1
:100E8000302000F083FB012332220621302000F0C5
:100E900029FB012333220621402000F023FB00E040
:100EA00000BF00BF012000F039FE052812D12648FE
:100EB000006878B91D480068401C1C490860012082
:100EC0002149086019480068042825DD00201749D9
:100ED000086021E0012000F021FE042811D11A4809
:100EE000006870B901201849086010480068401E69
:100EF0000E4908600846006800280DDA04200860E2
:100F00000AE0012000F00AFE30B90F48006801280D
:100F100002D100200C490860044800780B49487051
:100F20000A48007820283FF429AF08BD281C00207B
:100F3000322E3447000000005749464900000000A7
:100F400020555342200000002C1C0020181C0020BB
:100F5000704700001CB511A103C9CDE900011020A4
:100F600000F046FF05226946302000F041F90522D5
:100F70006946102000F058F8002406E01DF804002F
:100F8000A52800D003E0601CC4B2052CF6DB00BF2E
:100F9000052C01D001201CBD0020FCE7A5A5A5A5BE
:100FA000A500000008B50121142000F02DFD1C2033
:100FB000ADF8000010208DF8030003208DF802002A
:100FC00069461748FFF73EFD1C211548FFF7C7FD8E
:100FD0001020ADF800008DF8030003208DF802000A
:100FE00069461048FFF72EFD10210E48FFF7B7FDA8
:100FF0002020ADF8000048208DF8030003208DF874
:10100000020069460748FFF71DFD00F08BFE102126
:101010000348FFF7A2FD10210248FFF7A0FD08BD1D
:1010200000080140001001402DE9F04107460D463F
:10103000164610210B48FFF790FD384600F0AEFE33
:101040008046002405E0FF2000F0A8FE2855601C23
:10105000C4B2B442F7DB10210248FFF780FD4046DE
:10106000BDE8F081001001407CB50024002500F0AF
:1010700021F9A6E0E1B201232C22002000F032FA8F
:10108000012000F04BFD06280CD15DB9E1B201232F
:101090002522002000F026FA0125A41E002C1ADAD1
:1010A000062418E0012000F039FD07280CD15DB9B5
:1010B000E1B201232522002000F014FA0125A41C2E
:1010C000062C08DD002406E0012000F027FD10B901
:1010D000012D00D10025204604EBD0714910491C98
:1010E0003B4A917010468078012808D100201023D7
:1010F00038A201460090184600F016FC07E00120D7
:10110000102334A200210090184600F00DFC304856
:101110008078022808D1002010232FA202210090FD
:10112000184600F001FC07E0012010232AA202214A
:101130000090184600F0F8FB25488078032808D175
:101140000020102325A204210090184600F0ECFB9B
:1011500007E00120102321A204210090184600F08E
:10116000E3FB1B488078042808D1002010231CA230
:1011700006210090184600F0D7FB07E0012010235D
:1011800017A206210090184600F0CEFB01200C218A
:10119000CDE900100E48827801230621602000F07E
:1011A00079FB01200C230FA206210090662000F09D
:1011B000BBFB01200C230CA2062100906C2000F048
:1011C000B3FB0A48807800283FF454AF7CBD000090
:1011D0001B1C0020313A0000323A0000333A000074
:1011E000343A00002F00000034000000181C0020DA
:1011F0002DE9F04107460C46154610210B48FFF734
:10120000ACFC384600F0CAFD8046002605E014F824
:10121000010B00F0C3FD701CC6B2AE42F7DB10211B
:101220000248FFF79CFC4046BDE8F08100100140F9
:1012300070B5002100230F22C47804B3154C246834
:1012400004F4E064C4F5E064210AC1F10403CA4077
:10125000447804FA03F184781440214309010E4CC8
:101260000678A155047804F01F050124AC400578E8
:101270006D11AD0005F1E025C5F8004109E00478E5
:1012800004F01F050124AC40044D0678761145F8A2
:10129000264070BD0CED00E000E400E080E100E0DD
:1012A00002490143024A1160704700000000FA053C
:1012B0000CED00E070B500241CE00A2001F0E8FA13
:1012C00004F1B001C8B2002100F050FB0021084633
:1012D00000F04CFB0021102000F048FB002505E049
:1012E0000121002000F042FB681CC5B2802DF7DB15
:1012F000601CC4B2082CE0DB70BD000008B5012101
:10130000082000F081FB7820ADF8000010208DF857
:10131000030003208DF8020069464A48FFF792FB5C
:1013200078214848FFF71BFC10214648FFF717FCBF
:10133000642001F0ADFA10214248FFF70EFC642052
:1013400001F0A6FA10213F48FFF709FC0021AE206A
:1013500000F00CFB0021084600F008FB00211020E3
:1013600000F004FB0021402000F000FB0021812060
:1013700000F0FCFA0021CF2000F0F8FA0021A120B3
:1013800000F0F4FA0021C82000F0F0FA0021A620B5
:1013900000F0ECFA0021A82000F0E8FA00213F203C
:1013A00000F0E4FA0021D32000F0E0FA0021084622
:1013B00000F0DCFA0021D52000F0D8FA00218020CE
:1013C00000F0D4FA0021D92000F0D0FA0021F12059
:1013D00000F0CCFA0021DA2000F0C8FA0021122037
:1013E00000F0C4FA0021DB2000F0C0FA0021402008
:1013F00000F0BCFA0021202000F0B8FA0021022001
:1014000000F0B4FA00218D2000F0B0FA0021142081
:1014100000F0ACFA0021A42000F0A8FA0021A620D8
:1014200000F0A4FA0021AF2000F0A0FA0021AF20C4
:1014300000F09CFAFFF73EFF0021084600F072F929
:1014400008BD0000000C01402DE9F04180460E4629
:10145000174600243D023146404600F063F900BFC4
:1014600007E01F49485D012100F080FA6D1C601CF7
:10147000C4B2802CF5DB701CC1B2404600F052F9BA
:10148000002407E01649485D012100F06FFA6D1C49
:10149000601CC4B2802CF5DBB01CC1B2404600F029
:1014A00041F9002407E00E49485D012100F05EFA91
:1014B0006D1C601CC4B2802CF5DBF01CC1B2404630
:1014C00000F030F9002407E00549485D012100F0F3
:1014D0004DFA6D1C601CC4B2802CF5DBBDE8F081B8
:1014E00050FC00082DE9F04781460E4690461F4605
:1014F00000244FEA48153146484600F013F90FBB67
:1015000000BF09E02049495DC943C8B2012100F08C
:101510002DFA6D1C601CC4B2102CF3DB701CC1B220
:10152000484600F0FFF8002409E01749495DC94327
:10153000C8B2012100F01AFA6D1C601CC4B2102C54
:10154000F3DB1EE0012F1CD1002407E00E49485DAB
:10155000012100F00BFA6D1C601CC4B2102CF5DBED
:10156000701CC1B2484600F0DDF8002407E00649CF
:10157000485D012100F0FAF96D1C601CC4B2102C0A
:10158000F5DBBDE8F0870000902D00082DE9F0475D
:1015900081460E4690461F4600244FEAC815002F8C
:1015A0004BD13146484600F0BDF800BF09E046493E
:1015B000495DC943C8B2012100F0D8F96D1C601C17
:1015C000C4B2202CF3DB701CC1B2484600F0AAF86C
:1015D000002409E03C49495DC943C8B2012100F03B
:1015E000C5F96D1C601CC4B2202CF3DBB01CC1B269
:1015F000484600F097F8002409E03349495DC943A3
:10160000C8B2012100F0B2F96D1C601CC4B2202CDC
:10161000F3DBF01CC1B2484600F084F8002409E076
:101620002949495DC943C8B2012100F09FF96D1CE9
:10163000601CC4B2202CF3DB44E0012F42D13146C0
:10164000484600F06FF8002407E01F49485D01217B
:1016500000F08CF96D1C601CC4B2202CF5DB701CF2
:10166000C1B2484600F05EF8002407E01649485D24
:10167000012100F07BF96D1C601CC4B2202CF5DB4D
:10168000B01CC1B2484600F04DF8002407E00E49F6
:10169000485D012100F06AF96D1C601CC4B2202C69
:1016A000F5DBF01CC1B2484600F03CF8002407E02E
:1016B0000549485D012100F059F96D1C601CC4B258
:1016C000202CF5DBBDE8F087D04D00082DE9F04176
:1016D00080460E46174600243D013146404600F044
:1016E00021F800BF07E00E49485D012100F03EF9F6
:1016F0006D1C601CC4B2082CF5DB701CC1B24046E6
:1017000000F010F8002407E00549485D012100F0D1
:101710002DF96D1C601CC4B2082CF5DBBDE8F0810E
:10172000102A000870B504460D4605F1B001C8B294
:10173000002100F01BF9102141EA1410002100F0F3
:1017400015F904F00F0141F00100002100F00EF93D
:1017500070BD00002DE9F04780460E4691461F46B9
:10176000DDF820A000250024A9F12000C5B2B8F1C1
:101770007F0F02DDA046B01CC6B2BAF1000F43D104
:10178000102F28D131464046FFF7CCFF00240AE055
:1017900004EB05113D4A515CC943C8B2012100F078
:1017A000E5F8601CC4B2082CF2DB701CC1B24046E4
:1017B000FFF7B8FF00240BE004EB05110831334AB2
:1017C000515CC943C8B2012100F0D0F8601CC4B21A
:1017D000082CF1DB58E00C2F56D1701CC1B24046EA
:1017E000FFF7A0FF00240CE005EB4501284A02EBBF
:1017F0004101095DC943C8B2012100F0B7F8601C7E
:10180000C4B2062CF0DB3FE0BAF1010F3CD1102F3F
:1018100024D131464046FFF785FF002408E004EB61
:1018200005111A4A505C012100F0A0F8601CC4B2F6
:10183000082CF4DB701CC1B24046FFF773FF002494
:1018400009E004EB05110831104A505C012100F059
:101850008DF8601CC4B2082CF3DB15E00C2F13D1FB
:10186000701CC1B24046FFF75DFF00240AE005EBA3
:101870004501074A02EB4101085D012100F076F8BD
:10188000601CC4B2062CF2DBBDE8F087680F0108CB
:10189000400D01082DE9FF4F83B0074691461E46D3
:1018A000DDE9105A00200290002438E0301B401E71
:1018B000C1B20A2001F050F8B9FBF0F00A21B0FBE8
:1018C000F1F201FB12080298B0B9701EA04213DDBC
:1018D000B8F1000F0ED1AB4605EBDB71491001FBEF
:1018E0000471C8B22B462022CDF800A00499FFF75E
:1018F00031FF12E001200290AB4605EBDB7149108D
:1019000001FB0471C8B208F13001CAB22B46CDF810
:1019100000A00499FFF71EFF00BF601CC4B2B442D0
:10192000C4DB07B0BDE8F08F2DE9F84304460F464D
:1019300015469846DDF82090002611E0CDF800907D
:10194000AA5D434639462046FFF704FF04F108002C
:10195000C4B2782C02DD0024B81CC7B2701CC6B219
:10196000A85D0028EAD1BDE8F883000070B5044600
:101970000E4626B108211448FFF7F1F803E00821CC
:101980001148FFF7EAF8002517E040210E48FFF75D
:10199000E4F804F0800020B120210B48FFF7DFF8C5
:1019A00003E020210848FFF7D8F840210648FFF758
:1019B000D6F86006040E681CC5B2082DE5DB0821C8
:1019C0000148FFF7CCF870BD000C014070470000E3
:1019D00001460020034A506820F44040084350600C
:1019E000704700000010024029B1064AD269024344
:1019F000044BDA6104E0034AD2698243014BDA61A5
:101A0000704700000010024029B1064A9269024363
:101A1000044B9A6104E0034A92698243014B9A6144
:101A2000704700000010024029B1064AD268024304
:101A3000044BDA6004E0034AD2688243014BDA6067
:101A4000704700000010024030B500210022002441
:101A500000232D4D6D6805F00C0121B1042905D03E
:101A6000082923D105E0294D056022E0274D0560B6
:101A70001FE0254D6D6805F47012234D6D6805F467
:101A80008034022505EB92421CB9214D5543056077
:101A90000BE01D4D6D6805F400351DB11C4D55431F
:101AA000056002E0194D5543056002E0174D0560E1
:101AB00000BF00BF144D6D6805F0F0010909154D18
:101AC0006B5C0568DD4045600F4D6D6805F4E061B5
:101AD000090A104D6B5C4568DD4085600A4D6D68F4
:101AE00005F46051C90A0B4D6B5C4568DD40C5606B
:101AF000054D6D6805F44041890B074D6B5CC56869
:101B0000B5FBF3F5056130BD0010024000127A000C
:101B100000093D003E1C00204E1C002010B504466C
:101B2000002C5BD15F48007810BB0020FFF71AF84B
:101B300040F26C7188421ADD0020FFF713F840F67E
:101B40003401884213DA0120FFF70CF840F26C717F
:101B50008842F0DD0120FFF705F840F634018842A5
:101B6000F0DA01204F49087000204F49087091E0D9
:101B70004C4800780028FAD00020FEF7F3FF30B977
:101B800000204849087005204749087082E000207D
:101B9000FEF7E8FF40F6FF71884206D10020414978
:101BA000087004204049087074E00120FEF7DAFF55
:101BB00040F6FF71884206D100203A49087006209D
:101BC0003949087066E00120FEF7CCFF002861D19A
:101BD000344908700720344908705BE0012C59D162
:101BE0003248007810BB0820FEF7BCFF40F26C7151
:101BF00088424FDD0820FEF7B5FF40F634018842E9
:101C000048DA0920FEF7AEFF40F26C71884241DDF0
:101C10000920FEF7A7FF40F6340188423ADA012096
:101C20002249087000202249087033E01F480078DC
:101C300028B30820FEF796FF30B900201B49087032
:101C400005201B49087025E00820FEF78BFF40F6B1
:101C5000FF71884206D100201449087004201449FD
:101C6000087017E00920FEF77DFF40F6FF718842FB
:101C700006D100200D49087006200D49087009E0C2
:101C80000920FEF76FFF28B90020084908700720D7
:101C90000749087014B90448007810BD044800785A
:101CA000FBE70000140000201500002016000020B3
:101CB0001700002021B1028842F04002028004E0B7
:101CC00002884FF6BF731A40028070470246002018
:101CD00013890B400BB1012000E000207047014642
:101CE000888970478181704710B50022028802F40C
:101CF00041520B884C8823438C882343CC88234350
:101D00000C8923434C8923438C892343CC89234367
:101D10001A430280838B4FF2FF74234083830B8A24
:101D2000038210BD08B5012141F20400FFF76CFEEB
:101D3000E020ADF8000018208DF8030003208DF896
:101D4000020069461248FEF77DFEE0211048FEF7CA
:101D500006FF00200F4908804FF482704880002061
:101D60008880C88008814FF40070488138208881BD
:101D70000020C881072008820748FFF7B5FF01212E
:101D80000548FFF797FFFF2000F008F808BD0000A6
:101D900000080140541C00200030014070B5054689
:101DA000002405E0601CC4B2C82C01DD002070BD19
:101DB00002210E48FFF78AFF0028F3D029460B487E
:101DC000FFF790FF002400BF01210848FFF77EFFC6
:101DD0000028F9D0601CC4B2C82C01DD0020E6E761
:101DE0000248FFF77CFFC0B2E1E70000003001408D
:101DF00010B504460548848101460548FFF774FF85
:101E000001210348FFF756FF10BD0000541C0020BD
:101E100000300140704710B500F002F810BD00001E
:101E20000CB50020019000903348006840F48030E9
:101E30003149086000BF3048006800F4003000906D
:101E40000198401C0190009818B90198B0F5A06F56
:101E5000F1D12948006800F4003010B10120009051
:101E600001E0002000900098012843D12348006839
:101E700040F01000214908600846006820F0030087
:101E800008600846006840F0020008601A48406890
:101E9000194948600846406848600846406840F470
:101EA000806048600846406820F47C10486008461E
:101EB000406840F4E81048600846006840F08070D0
:101EC000086000BF0C48006800F000700028F9D0DE
:101ED0000948406820F00300074948600846406808
:101EE00040F00200486000BF0348406800F00C006A
:101EF0000828F9D10CBD000000100240002002406B
:101F00007CB500240025FFF7D5F9A6E0E1B2012356
:101F10002C220020FFF7E6FA0120FFF7FFFD06283C
:101F20000CD15DB9E1B2012325220020FFF7DAFAD6
:101F30000125A41E002C1ADA062418E00120FFF760
:101F4000EDFD07280CD15DB9E1B201232522002067
:101F5000FFF7C8FA0125A41C062C08DD002406E0C2
:101F60000120FFF7DBFD10B9012D00D1002520462F
:101F700004EBD0714910491C3B4A1171104600799D
:101F8000012808D10020102338A2014600901846ED
:101F9000FFF7CAFC07E00120102334A200210090C3
:101FA0001846FFF7C1FC30480079022808D100200C
:101FB00010232FA2022100901846FFF7B5FC07E07E
:101FC000012010232AA2022100901846FFF7ACFC42
:101FD00025480079032808D10020102325A20421D8
:101FE00000901846FFF7A0FC07E00120102321A273
:101FF000042100901846FFF797FC1B48007904283D
:1020000008D1002010231CA2062100901846FFF7DB
:102010008BFC07E00120102317A206210090184630
:10202000FFF782FC01200C21CDE900100E48027957
:10203000012306216020FFF72DFC01200C230FA2B5
:10204000062100906620FFF76FFC01200C230CA2F4
:10205000062100906C20FFF767FC0A48807804286E
:102060003FF454AF7CBD00001B1C0020313A00003F
:10207000323A0000333A0000343A00002F000000EA
:1020800034000000181C0020042808D14FF0E02183
:10209000096941F004014FF0E022116107E04FF0BF
:1020A000E021096921F004014FF0E022116170473D
:1020B0007047000010B51348006840F00100114956
:1020C000086008464068104908400E4948600846C4
:1020D00000680E4908400B4908600846006820F473
:1020E000802008600846406820F4FE0048604FF4F5
:1020F0001F008860FFF78FFE4FF000600449086002
:1021000010BD0000001002400000FFF8FFFFF6FEC7
:1021100008ED00E010B50121224800F08AF80028FF
:102120003FD001211F4800F075F81F48006808B92A
:10213000012000E000201C4908601C48C07808B954
:10214000012000E000201949C87008468178807895
:10215000401C164A90703B2916D100201146887009
:10216000084641784078401C50703B290CD1002033
:1021700011464870084601780078401C10703B29D1
:1021800002D1002011460870FEF7E4FE18B10020CD
:102190000749887005E0FEF7DDFE10B9012004490B
:1021A000887010BD0004004088812242301C00204D
:1021B0001B1C00207FB505460C4601210220FFF7BD
:1021C00013FCADF80850ADF804400020ADF80A004B
:1021D000ADF8060001A90E4800F046F801221146AC
:1021E0000B4800F037F81D208DF8000000208DF816
:1021F000010003208DF8020001208DF803006846DD
:10220000FFF716F80121024800F007F87FBD000033
:1022100000040040CA430282704721B1028842F0A4
:102220000102028004E002884FF6FE731A40028029
:10223000704730B50246002000230024158A05EAC5
:102240000103958905EA010413B10CB1012000E0F6
:10225000002030BD1AB183890B43838102E083895A
:102260008B43838170470000002202881D4B9842F7
:102270000ED01D4B98420BD0B0F1804F08D01B4BB5
:10228000984205D01A4B984202D01A4B984204D17A
:102290004FF68F731A404B881A43174B984207D05A
:1022A000164B984204D04FF6FF431A40CB881A438E
:1022B00002808B8883850B8803850A4B98420BD05C
:1022C000094B984208D00E4B984205D00D4B9842CE
:1022D00002D00D4B984201D10B7A038601238382F1
:1022E00070470000002C0140003401400004004011
:1022F00000080040000C00400010004000140040A6
:1023000000400140004401400048014010B540F247
:1023100025511D4800F04AF810B31B4800F002F99F
:10232000C4B21A48008800F40040C8B917480088B1
:1023300000F4804060B10A2C03D0002013490880CB
:1023400020E01248008840F400401049088019E05D
:102350000D2C06D10D48008840F480400B490880C0
:1023600010E00A480088C0F30D0009490C540748E2
:102370000088401C0549088008460088C72801DD00
:102380000020088010BD0000003801403C1C0020E7
:10239000661C002021B1828942F40052828104E04F
:1023A00082894DF6FF731A408281704770B50246EC
:1023B000002400230025002040F66A16B14200D117
:1023C00000BFC1F3421501F01F03012606FA03F313
:1023D000012D02D19689334006E0022D02D1168AE2
:1023E000334001E0968A33400C12012606FA04F4C9
:1023F0001688344013B10CB1012000E0002070BDFC
:10240000F0B50346002400260025002040F66A1798
:10241000B94200D100BF1846C1F3421401F01F06B3
:10242000012707FA06F5012C01D10C3004E0022C3B
:1024300001D1103000E014301AB107682F43076053
:1024400002E00768AF430760F0BD00002DE9F047E8
:1024500086B005460E460024A24600BFA1460027CE
:10246000B08900B100BF2F462C8A4CF6FF700440A3
:10247000F08804432C82AC894EF6F3100440B088F7
:1024800031890843718908430443AC81AC8A4FF613
:10249000FF400440B0890443AC8201A8FFF7D4FA9E
:1024A0001F48874202D1DDF810A001E0DDF80CA042
:1024B000A88900F4004040B10AEBCA0000EB0A1002
:1024C00031684900B0FBF1F807E00AEBCA0000EB05
:1024D0000A1031688900B0FBF1F86420B8FBF0F015
:1024E00004012009642101FB1089A88900F400403F
:1024F00040B1322000EBC900B0FBF1F000F0070062
:10250000044308E0322000EB09106421B0FBF1F035
:1025100000F00F0004432C8106B0BDE8F0870000F6
:102520000038014001468888C0F308007047000069
:102530007CB500240025FEF7BDFEA6E0E1B2012334
:102540002C220020FEF7CEFF0120FFF7E7FA062835
:102550000CD15DB9E1B2012325220020FEF7C2FFB4
:102560000125A41E002C1ADA062418E00120FFF72A
:10257000D5FA07280CD15DB9E1B20123252200204C
:10258000FEF7B0FF0125A41C062C08DD002406E0A0
:102590000120FFF7C3FA10B9012D00D10025204614
:1025A00004EBD0714910491C3B4AD1701046C078E9
:1025B000012808D10020102338A2014600901846B7
:1025C000FFF7B2F907E00120102334A200210090A8
:1025D0001846FFF7A9F93048C078022808D1002032
:1025E00010232FA2022100901846FFF79DF907E063
:1025F000012010232AA2022100901846FFF794F927
:102600002548C078032808D10020102325A20421E2
:1026100000901846FFF788F907E00120102321A257
:10262000042100901846FFF77FF91B48C078042862
:1026300008D1002010231CA2062100901846FFF7A5
:1026400073F907E00120102317A206210090184615
:10265000FFF76AF901200C21CDE900100E48C2787D
:10266000012306216020FFF715F901200C230FA29A
:10267000062100906620FFF757F901200C230CA2D9
:10268000062100906C20FFF74FF90A488078032854
:102690003FF454AF7CBD00001B1C0020313A000009
:1026A000323A0000333A0000343A00002F000000B4
:1026B00034000000181C002000BFFEE77CB5002499
:1026C0000025FEF7F7FDA6E0E1B201232C22002051
:1026D000FEF708FF0120FFF721FA06280CD15DB9AB
:1026E000E1B2012325220020FEF7FCFE0125A41EF5
:1026F000002C1ADA062418E00120FFF70FFA072849
:102700000CD15DB9E1B2012325220020FEF7EAFEDB
:102710000125A41C062C08DD002406E00120FFF79B
:10272000FDF910B9012D00D10025204604EBD07130
:102730004910491C3B4A517010464078012808D185
:102740000020102338A2014600901846FFF7ECF84D
:1027500007E00120102334A2002100901846FFF763
:10276000E3F830484078022808D1002010232FA237
:10277000022100901846FFF7D7F807E00120102348
:102780002AA2022100901846FFF7CEF8254840788B
:10279000032808D10020102325A204210090184608
:1027A000FFF7C2F807E00120102321A204210090C6
:1027B0001846FFF7B9F81B484078042808D10020D4
:1027C00010231CA2062100901846FFF7ADF807E081
:1027D0000120102317A2062100901846FFF7A4F845
:1027E00001200C21CDE900100E484278012306217A
:1027F0006020FFF74FF801200C230FA20621009064
:102800006620FFF791F801200C230CA2062100900E
:102810006C20FFF789F80A48807802283FF454AF0B
:102820007CBD00001B1C0020313A0000323A000041
:10283000333A0000343A00002F000000340000005A
:10284000181C0020014600BF7047000010B56FF053
:102850000400FFF719FC0A4800680A49B0FBF1F0D0
:10286000094908700846007800EB4001C1EBC01030
:102870004FF6FF7101EAC0000449088010BD000056
:102880000000002000127A00341C0020361C0020BA
:102890000146114A12884A434FF0E0235A61002250
:1028A0009A611A46126942F001021A6100BF4FF0A4
:1028B000E022106900F001021AB100F48032002A0F
:1028C000F5D04FF0E022126922F001024FF0E02330
:1028D0001A6100229A617047361C0020FFF7B6FF8C
:1028E0000220FEF75BF90120FEF758F94FF4A060D3
:1028F000FEF7D6FC4FF4165000F03AF8FEF7B0F9A8
:10290000FEF7FCFCFEF74EFBFDF7D2FDFEF75EF98D
:1029100041F61F4142F20F70FFF74CFCFDF7E4FE59
:1029200010200C49087013E00A480078102804D0E1
:10293000202805D0302809D105E0FEF7BFF906E0D0
:10294000FEF718FA03E0FEF739F800E000BF00BF19
:10295000EAE70000181C002010B50246012000E044
:1029600050430B1EA1F10104E1B2F9D110BD0000EA
:1029700010B586B00446012144F20400FFF744F884
:102980004FF40070ADF8140003208DF816001820E5
:102990008DF8170005A91C48FEF754F84FF4806025
:1029A000ADF8140004208DF8170005A91648FEF7AD
:1029B00049F825208DF8000003208DF801008DF8DE
:1029C000020001208DF803006846FEF731FC0194F7
:1029D0000020ADF80800ADF80A00ADF80C00ADF825
:1029E00010000C20ADF80E0001A90848FFF72EFDDD
:1029F000012240F225510548FFF702FD012103485D
:102A0000FFF7C8FC06B010BD0008014000380140C7
:102A100000FCFC0C0CFCFC00003F3F30303F3F0052
:102A20000000000000FCFC0000000000003F3F0030
:102A3000008C8C8C8CFCFC00003F3F31313131002C
:102A4000008C8C8C8CFCFC0000313131313F3F001C
:102A500000FCFC8080FCFC0000010101013F3F0004
:102A600000FCFC8C8C8C8C0000313131313F3F00FC
:102A700000FCFC8C8C8C8C00003F3F31313F3F00D0
:102A8000000C0C0C0CFCFC0000000000003F3F00A0
:102A900000FCFC8C8CFCFC00003F3F31313F3F00D0
:102AA00000FCFC8C8CFCFC0000313131313F3F00DC
:102AB000000000606000000000000006060000004A
:102AC0000000000000000000000000000000000006
:102AD00000F8F818181818181818181818F8F80026
:102AE00000FFFF00000000000000000000FFFF00EA
:102AF00000FFFF00000000000000000000FFFF00DA
:102B0000001F1F181818181818181818181F1F0059
:102B100000000000000000F8F800000000000000C5
:102B200000000000000000FFFF00000000000000A7
:102B300000000000000000FFFF0000000000000097
:102B4000000000000000001F1F0000000000000047
:102B500000181818181818181818181818F8F80065
:102B600000808080808080808080808080FFFF0067
:102B700000FFFF010101010101010101010101004B
:102B8000001F1F18181818181818181818181800E7
:102B900000181818181818181818181818F8F80025
:102BA00000808080808080808080808080FFFF0027
:102BB00000010101010101010101010101FFFF000B
:102BC000001818181818181818181818181F1F00A7
:102BD00000F8F800000000000000000000F8F80015
:102BE00000FFFF80808080808080808080FFFF00E9
:102BF00000010101010101010101010101FFFF00CB
:102C0000000000000000000000000000001F1F0086
:102C100000F8F818181818181818181818181800A4
:102C200000FFFF80808080808080808080808000A6
:102C300000010101010101010101010101FFFF008A
:102C4000001818181818181818181818181F1F0026
:102C500000F8F81818181818181818181818180064
:102C600000FFFF8080808080808080808080800066
:102C700000FFFF01010101010101010101FFFF004E
:102C8000001F1F181818181818181818181F1F00D8
:102C900000181818181818181818181818F8F80024
:102CA00000000000000000000000000000FFFF0026
:102CB00000000000000000000000000000FFFF0016
:102CC000000000000000000000000000001F1F00C6
:102CD00000F8F818181818181818181818F8F80024
:102CE00000FFFF80808080808080808080FFFF00E8
:102CF00000FFFF01010101010101010101FFFF00CE
:102D0000001F1F181818181818181818181F1F0057
:102D100000F8F818181818181818181818F8F800E3
:102D200000FFFF80808080808080808080FFFF00A7
:102D300000010101010101010101010101FFFF0089
:102D4000001818181818181818181818181F1F0025
:102D50000000000000000000000000000000000073
:102D600000000000001F1F1F1F1F000000000000C8
:102D70000000000000F0F0F0F0F0000000000000A3
:102D8000000000000001010101010000000000003E
:102D9000F808080808080808080808080808F8C01B
:102DA0001F101010101010101010101010101F0312
:102DB000F808E8E808080808080808080808F8C03B
:102DC0001F101717101010101010101010101F03E4
:102DD000F808E8E808E8E808080808080808F8C05B
:102DE0001F101717101717101010101010101F03B6
:102DF000F808E8E808E8E808E8E808080808F8C07B
:102E00001F101717101717101717101010101F0387
:102E1000F808E8E808E8E808E8E808E8E808F8C09A
:102E20001F101717101717101717101717101F0359
:102E300000000000204080FC8850200000000000BE
:102E4000000000000201001F080502000000000051
:102E500000000000008000C000E000F000F800006A
:102E6000000E000F000F000F000F000F000F0000FA
:102E7000000000000000000C142444FC4424140C46
:102E800000000000000000000000001F0000000023
:102E9000002018C744444444FC4444444404000013
:102EA0000404040704040404FF04040404040400E8
:102EB000000000FE2222222222222222FE00000006
:102EC0008040300F02020202020242827F000000B4
:102ED000000000FE82828282828282FE0000000068
:102EE000000000FF40404040404040FF0000000024
:102EF000040444C44F4444C424242FB424040400D0
:102F000040442424150C04FE040C152424444000E1
:102F10000000F8494A4C48F8484C4A49F80000007B
:102F200010101312121212FF1212121213101000AC
:102F3000404042CC0000FF4949C949497F80000018
:102F40000040201F20405F48444041424558400017
:102F500000007C40404040FF40404040FC000000FA
:102F6000007C40404040407F4040404040FC0000EA
:102F7000404042CC0000FC24A4242222A362000092
:102F80000040201F205847504845424548504000C7
:102F90000000FE0202F2121212F20202FE00000013
:102FA00000007F2020272424242720207F000000E9
:102FB00004244484649C40300FC80808281800008A
:102FC00010080601824C20180601061820408000D7
:102FD000404042CC0000FC040200FC0404FC000061
:102FE0000040201F20404F4442407F424443400065
:102FF00000080828C80808FF0808886808080000B2
:1030000021211111090503FF0305091111212100D7
:103010004262524AC6425262C200F80000FF0000FB
:1030200040C444447F24242420000F40807F0000BB
:103030001060028C008888FF888800FE2222FE0033
:1030400004047E01001F0808089F601F42827F0061
:1030500004E4242464A4243F24A4642424E4040079
:1030600000FF00080909097F09090948807F00005D
:103070001010D0FF901000FE020202FE00000000BF
:10308000040300FF0083601F0000003F4040780001
:103090000000F888888888FF88888888F800000001
:1030A00000001F080808087F888888889F80F00033
:1030B0000202FE9292FE0202FC04040404FC0000E0
:1030C00008180F0804FF0480631901010933C000C8
:1030D0000010608000FF000000FF0000C030000012
:1030E00040404043407F4040407F4241404040009C
:1030F000101010FF109008888888FF8888880800C2
:103100000444827F01808040432C10284681800047
:103110000010101010D030FF30D0121C1010000022
:1031200010080402010000FF000001020408100062
:1031300040301196909091969090981413503000D2
:10314000040404040444847E060504040404040006
:1031500000FE225A86100C242425262424140C0058
:1031600000FF0408078041310F01013F4141710018
:103170000484E45C44C42010E82724E4342CE000F8
:1031800002017F10103F80601F09093F49897F00BD
:10319000100C4444444445C64444444444140C0084
:1031A0008040201E2040407F44444444444040002E
:1031B000002010884424242424242444881020003F
:1031C00000000000000201191901020000000000C7
:1031D00000000080402020202020204080000000AF
:1031E00000000000000201191901020000000000A7
:1031F00000000000000000000000000000000000CF
:103200000000000000020119190102000000000086
:1032100000000000000000000000000000000000AE
:10322000000000000000001818000000000000006E
:10323000000000000000000000000000000000008E
:10324000000000000000000000000000000000007E
:10325000060A1222FE22120A06008000E000F80090
:10326000000000001F0018001E001F001F001F00AC
:1032700000004060F0F060400000F0F0000000004E
:10328000000000001F1F0000040C1F1F0C040000A2
:103290000000003C549414941494543C000000002A
:1032A00000000000001F1013101F000000000000AD
:1032B00000FE0222DA0620D808090E088828180025
:1032C00000FF08100807003F4444424140780000D6
:1032D00000F808FF08F8003EAA6A3E2AAA3E00004D
:1032E0002063211F11394829098DFB09082C58003A
:1032F000008060F807001CE0010600E01E000000EE
:10330000010000FF00804020130C1320408080004B
:103310000000E0202020203C040810204080000015
:10332000000007040404043C20100804020100000B
:1033300000FE424242FE0042A29E82A2C2BE0000A5
:10334000806F080828CF00002FC8080828CF000089
:1033500000FC444444FC0000FE22222222FE000025
:10336000000F0404048F40300F020242827F0000ED
:10337000807000FF201004040404FC040404040012
:10338000806018070830000040807F0000000000C7
:1033900080828282FE8282828282FE82828280009B
:1033A000008040300F0000000000FF00000000001F
:1033B00000001011161010F010101413100000006F
:1033C0008181414121110D030D1121414181810074
:1033D000404042CC0040A09E8282829EA0202000DD
:1033E0000000003F908840432C1028464180800018
:1033F000001715D55557557D555755D5151700004C
:103400004040407F555555555555557F40404000EB
:1034100000FC848484FC001010101010FF101000B9
:10342000003F1010103F0000010640807F000000A8
:1034300020102CE7242400F01010FF1010F00000E2
:103440000101017F211100070202FF0202070000B3
:103450000000F888888888FF88888888F80000003D
:1034600000001F080808087F888888889F80F0006F
:103470000000FE0282828282FA82828282820200BE
:1034800080601F40404040407F40404458404000E2
:103490001060028C004464544D46445464C40400DB
:1034A00004047E0180403E0000FE00007E80E000BB
:1034B00000E000FF10200888780F08E8080888005E
:1034C000010000FF00100C834423180718628100DC
:1034D000201008F754545454545454F40404000075
:1034E000809090494D57252525554D458080800079
:1034F00000007C40404040FF40404040FC00000055
:10350000007C40404040407F4040404040FC000044
:103510000000FE0202020202020202020202020095
:1035200080601F000000000000000000000000009C
:10353000000022322AA6A2622111098101000000A6
:10354000004222130B42827E02020A12234600002E
:103550002030AC63300088C8A8998E88A8C888003D
:1035600022672212128040300F00003F404071005D
:1035700000FE20203F2000FC24E4242223E200005F
:10358000807F0101FF80601F804126182641800056
:103590000010101010D030FF30D0101010100000AC
:1035A00010080402090808FF0808090204081000AE
:1035B0000404E4040FF40404F444CF444444040039
:1035C00040407D44447D4445447C44457C4040002B
:1035D0000000C2B28282828282FE82828282800067
:1035E0000020201008040241807F0000000000003D
:1035F0001060028C0000FE9292929292FE000000F7
:1036000004047E01407E42427E427E42427E400071
:103610000000FC242424FC252624FC24242404006B
:1036200040308F80844C55252525554C8080800066
:10363000004042445840407F40405048C60000008F
:10364000004044444444444444444444FF00000093
:103650000808E8292E28E80808C80C0BE808080024
:103660000000FF0949897F00000F40807F000000B3
:1036700000083000FF20202020FF2020222C2000E6
:1036800004040201FF8040300E0106182040800033
:10369000000484844424548F14244484840400004B
:1036A000413900003C4040424C4040700409310028
:1036B00000040474545455565454547404040000C3
:1036C000848341211D05050505057D818185E30074
:1036D0000000FC242424FC252624FC2424240400AB
:1036E00040308F80844C55252525554C80808000A6
:1036F000F212FE12FE12F20084848484FC000000A8
:10370000FF4A49484949FF003F404040414070005E
:10371000001715D55557557D555755D51517000028
:103720004040407F555555555555557F40404000C8
:103730000000F8888888880808FF08090AC8080077
:1037400080601F0010201F80402116182641F800BD
:10375000080808F80808081010FF101010F0000002
:103760001030101F088848300E014080403F000094
:10377000101010FF900094644454E242635A000019
:103780000242817F0000027A42427F4242FA0200F6
:103790001010D0FF901080828282FE828282800090
:1037A000040300FF000300000000FF000000000011
:1037B00090523410FF10345280708F0808F80800BF
:1037C000829A566322528E008040330C3340800030
:1037D0001010FF109000FE929292F292929E800042
:1037E00042827F0180601F00FC44474444FC00008B
:1037F00000C0C0C0C0C0C0C0C0FCF8F0E0C08000C5
:103800000003030303030303033F1F0F0703010028
:10381000000080C0E070584C4C5870E0C080000040
:10382000000001003F202F29292F203F0001000028
:10383000008000B8A8A8E800788080780000000028
:10384000001F18187E7E7E7E7E2424243C0000000B
:10385000008000A8A8A8F800788080780000000008
:10386000001F18187E7E7E7E7E2424243C000000EB
:1038700000000080C0FCC4C4C4C4FCC080000000C0
:10388000000000212323233F3F0303030100000026
:103890001010D0FF9014E4AFA4A4A4AFE40400007F
:1038A000040300FF00894B2A1A0E1A2A4B88800055
:1038B000202020FF2020080808FF080808F8000042
:1038C0001030100F884821110D030D112141810086
:1038D0004030EF246448487F4848487F48484000CB
:1038E00001017F211100FF4949494949FF000000BA
:1038F0004042CC0000809E92929292929E80000064
:1039000000007F2094844424140F142444848400F1
:10391000101010FF1010F00000F8080808F8000060
:103920008040300F40807F00007F2020207F0000FB
:10393000909494F49F9494941010FF1012D410005B
:1039400020262524FE141414804027182641F00058
:103950000000000000000000000000804020000087
:103960000000010204081008040201000000000029
:103970001010D0FF9014E4AFA4A4A4AFE40400009E
:10398000040300FF00894B2A1A0E1A2A4B88800074
:10399000101090909090901010FF101011161000C1
:1039A000002060203F10101000030C102040F80091
:1039B0000000181610D0B8979090909294100000C4
:1039C0000020108C838041462810284443808000CA
:1039D000404042CC0088898E88F8888C8B88800093
:1039E0000040201F2040504846414244584040007B
:1039F000101010FF1050445465C6446454444000F5
:103A00000444827F0182824A562322524E8202005F
:103A100000FC0000FF004020D8171010F01010002C
:103A2000000F0402FF00804021160816214080008C
:103A30003F21212121212121212121212121212158
:103A40002121212121212121212121212121213F48
:103A50003F3F21212121212121212121212121211A
:103A60002121212121212121212121212121213F28
:103A70003F3F3F21212121212121212121212121DC
:103A80002121212121212121212121212121213F08
:103A90003F3F3F3F2121212121212121212121219E
:103AA0002121212121212121212121212121213FE8
:103AB0003F3F3F3F3F212121212121212121212160
:103AC0002121212121212121212121212121213FC8
:103AD0003F3F3F3F3F3F2121212121212121212122
:103AE0002121212121212121212121212121213FA8
:103AF0003F3F3F3F3F3F3F212121212121212121E4
:103B00002121212121212121212121212121213F87
:103B10003F3F3F3F3F3F3F3F2121212121212121A5
:103B20002121212121212121212121212121213F67
:103B30003F3F3F3F3F3F3F3F3F2121212121212167
:103B40002121212121212121212121212121213F47
:103B50003F3F3F3F3F3F3F3F3F3F21212121212129
:103B60002121212121212121212121212121213F27
:103B70003F3F3F3F3F3F3F3F3F3F3F2121212121EB
:103B80002121212121212121212121212121213F07
:103B90003F3F3F3F3F3F3F3F3F3F3F3F21212121AD
:103BA0002121212121212121212121212121213FE7
:103BB0003F3F3F3F3F3F3F3F3F3F3F3F3F2121216F
:103BC0002121212121212121212121212121213FC7
:103BD0003F3F3F3F3F3F3F3F3F3F3F3F3F3F212131
:103BE0002121212121212121212121212121213FA7
:103BF0003F3F3F3F3F3F3F3F3F3F3F3F3F3F3F21F3
:103C00002121212121212121212121212121213F86
:103C10003F3F3F3F3F3F3F3F3F3F3F3F3F3F3F3FB4
:103C20002121212121212121212121212121213F66
:103C30003F3F3F3F3F3F3F3F3F3F3F3F3F3F3F3F94
:103C40003F21212121212121212121212121213F28
:103C50003F3F3F3F3F3F3F3F3F3F3F3F3F3F3F3F74
:103C60003F3F212121212121212121212121213FEA
:103C70003F3F3F3F3F3F3F3F3F3F3F3F3F3F3F3F54
:103C80003F3F3F2121212121212121212121213FAC
:103C90003F3F3F3F3F3F3F3F3F3F3F3F3F3F3F3F34
:103CA0003F3F3F3F21212121212121212121213F6E
:103CB0003F3F3F3F3F3F3F3F3F3F3F3F3F3F3F3F14
:103CC0003F3F3F3F3F212121212121212121213F30
:103CD0003F3F3F3F3F3F3F3F3F3F3F3F3F3F3F3FF4
:103CE0003F3F3F3F3F3F2121212121212121213FF2
:103CF0003F3F3F3F3F3F3F3F3F3F3F3F3F3F3F3FD4
:103D00003F3F3F3F3F3F3F21212121212121213FB3
:103D10003F3F3F3F3F3F3F3F3F3F3F3F3F3F3F3FB3
:103D20003F3F3F3F3F3F3F3F212121212121213F75
:103D30003F3F3F3F3F3F3F3F3F3F3F3F3F3F3F3F93
:103D40003F3F3F3F3F3F3F3F3F2121212121213F37
:103D50003F3F3F3F3F3F3F3F3F3F3F3F3F3F3F3F73
:103D60003F3F3F3F3F3F3F3F3F3F21212121213FF9
:103D70003F3F3F3F3F3F3F3F3F3F3F3F3F3F3F3F53
:103D80003F3F3F3F3F3F3F3F3F3F3F212121213FBB
:103D90003F3F3F3F3F3F3F3F3F3F3F3F3F3F3F3F33
:103DA0003F3F3F3F3F3F3F3F3F3F3F3F2121213F7D
:103DB0003F3F3F3F3F3F3F3F3F3F3F3F3F3F3F3F13
:103DC0003F3F3F3F3F3F3F3F3F3F3F3F3F21213F3F
:103DD0003F3F3F3F3F3F3F3F3F3F3F3F3F3F3F3FF3
:103DE0003F3F3F3F3F3F3F3F3F3F3F3F3F3F213F01
:103DF0003F3F3F3F3F3F3F3F3F3F3F3F3F3F3F3FD3
:103E00003F3F3F3F3F3F3F3F3F3F3F3F3F3F3F3FC2
:103E10003F21212121212121212121212121212174
:103E20002121212121212121212121212121212182
:103E30002121212121212121212121212121212172
:103E40002121212121212121212121212121213F44
:103E50003F3F212121212121212121212121212116
:103E60002121212121212121212121212121212142
:103E70002121212121212121212121212121212132
:103E80002121212121212121212121212121213F04
:103E90003F3F3F21212121212121212121212121B8
:103EA0002121212121212121212121212121212102
:103EB00021212121212121212121212121212121F2
:103EC0002121212121212121212121212121213FC4
:103ED0003F3F3F3F2121212121212121212121215A
:103EE00021212121212121212121212121212121C2
:103EF00021212121212121212121212121212121B2
:103F00002121212121212121212121212121213F83
:103F10003F3F3F3F3F2121212121212121212121FB
:103F20002121212121212121212121212121212181
:103F30002121212121212121212121212121212171
:103F40002121212121212121212121212121213F43
:103F50003F3F3F3F3F3F212121212121212121219D
:103F60002121212121212121212121212121212141
:103F70002121212121212121212121212121212131
:103F80002121212121212121212121212121213F03
:103F90003F3F3F3F3F3F3F2121212121212121213F
:103FA0002121212121212121212121212121212101
:103FB00021212121212121212121212121212121F1
:103FC0002121212121212121212121212121213FC3
:103FD0003F3F3F3F3F3F3F3F2121212121212121E1
:103FE00021212121212121212121212121212121C1
:103FF00021212121212121212121212121212121B1
:104000002121212121212121212121212121213F82
:104010003F3F3F3F3F3F3F3F3F2121212121212182
:104020002121212121212121212121212121212180
:104030002121212121212121212121212121212170
:104040002121212121212121212121212121213F42
:104050003F3F3F3F3F3F3F3F3F3F21212121212124
:104060002121212121212121212121212121212140
:104070002121212121212121212121212121212130
:104080002121212121212121212121212121213F02
:104090003F3F3F3F3F3F3F3F3F3F3F2121212121C6
:1040A0002121212121212121212121212121212100
:1040B00021212121212121212121212121212121F0
:1040C0002121212121212121212121212121213FC2
:1040D0003F3F3F3F3F3F3F3F3F3F3F3F2121212168
:1040E00021212121212121212121212121212121C0
:1040F00021212121212121212121212121212121B0
:104100002121212121212121212121212121213F81
:104110003F3F3F3F3F3F3F3F3F3F3F3F3F21212109
:10412000212121212121212121212121212121217F
:10413000212121212121212121212121212121216F
:104140002121212121212121212121212121213F41
:104150003F3F3F3F3F3F3F3F3F3F3F3F3F3F2121AB
:10416000212121212121212121212121212121213F
:10417000212121212121212121212121212121212F
:104180002121212121212121212121212121213F01
:104190003F3F3F3F3F3F3F3F3F3F3F3F3F3F3F214D
:1041A00021212121212121212121212121212121FF
:1041B00021212121212121212121212121212121EF
:1041C0002121212121212121212121212121213FC1
:1041D0003F3F3F3F3F3F3F3F3F3F3F3F3F3F3F3FEF
:1041E00021212121212121212121212121212121BF
:1041F00021212121212121212121212121212121AF
:104200002121212121212121212121212121213F80
:104210003F3F3F3F3F3F3F3F3F3F3F3F3F3F3F3FAE
:104220003F21212121212121212121212121212160
:10423000212121212121212121212121212121216E
:104240002121212121212121212121212121213F40
:104250003F3F3F3F3F3F3F3F3F3F3F3F3F3F3F3F6E
:104260003F3F212121212121212121212121212102
:10427000212121212121212121212121212121212E
:104280002121212121212121212121212121213F00
:104290003F3F3F3F3F3F3F3F3F3F3F3F3F3F3F3F2E
:1042A0003F3F3F21212121212121212121212121A4
:1042B00021212121212121212121212121212121EE
:1042C0002121212121212121212121212121213FC0
:1042D0003F3F3F3F3F3F3F3F3F3F3F3F3F3F3F3FEE
:1042E0003F3F3F3F21212121212121212121212146
:1042F00021212121212121212121212121212121AE
:104300002121212121212121212121212121213F7F
:104310003F3F3F3F3F3F3F3F3F3F3F3F3F3F3F3FAD
:104320003F3F3F3F3F2121212121212121212121E7
:10433000212121212121212121212121212121216D
:104340002121212121212121212121212121213F3F
:104350003F3F3F3F3F3F3F3F3F3F3F3F3F3F3F3F6D
:104360003F3F3F3F3F3F2121212121212121212189
:10437000212121212121212121212121212121212D
:104380002121212121212121212121212121213FFF
:104390003F3F3F3F3F3F3F3F3F3F3F3F3F3F3F3F2D
:1043A0003F3F3F3F3F3F3F2121212121212121212B
:1043B00021212121212121212121212121212121ED
:1043C0002121212121212121212121212121213FBF
:1043D0003F3F3F3F3F3F3F3F3F3F3F3F3F3F3F3FED
:1043E0003F3F3F3F3F3F3F3F2121212121212121CD
:1043F00021212121212121212121212121212121AD
:104400002121212121212121212121212121213F7E
:104410003F3F3F3F3F3F3F3F3F3F3F3F3F3F3F3FAC
:104420003F3F3F3F3F3F3F3F3F212121212121216E
:10443000212121212121212121212121212121216C
:104440002121212121212121212121212121213F3E
:104450003F3F3F3F3F3F3F3F3F3F3F3F3F3F3F3F6C
:104460003F3F3F3F3F3F3F3F3F3F21212121212110
:10447000212121212121212121212121212121212C
:104480002121212121212121212121212121213FFE
:104490003F3F3F3F3F3F3F3F3F3F3F3F3F3F3F3F2C
:1044A0003F3F3F3F3F3F3F3F3F3F3F2121212121B2
:1044B00021212121212121212121212121212121EC
:1044C0002121212121212121212121212121213FBE
:1044D0003F3F3F3F3F3F3F3F3F3F3F3F3F3F3F3FEC
:1044E0003F3F3F3F3F3F3F3F3F3F3F3F2121212154
:1044F00021212121212121212121212121212121AC
:104500002121212121212121212121212121213F7D
:104510003F3F3F3F3F3F3F3F3F3F3F3F3F3F3F3FAB
:104520003F3F3F3F3F3F3F3F3F3F3F3F3F212121F5
:10453000212121212121212121212121212121216B
:104540002121212121212121212121212121213F3D
:104550003F3F3F3F3F3F3F3F3F3F3F3F3F3F3F3F6B
:104560003F3F3F3F3F3F3F3F3F3F3F3F3F3F212197
:10457000212121212121212121212121212121212B
:104580002121212121212121212121212121213FFD
:104590003F3F3F3F3F3F3F3F3F3F3F3F3F3F3F3F2B
:1045A0003F3F3F3F3F3F3F3F3F3F3F3F3F3F3F2139
:1045B00021212121212121212121212121212121EB
:1045C0002121212121212121212121212121213FBD
:1045D0003F3F3F3F3F3F3F3F3F3F3F3F3F3F3F3FEB
:1045E0003F3F3F3F3F3F3F3F3F3F3F3F3F3F3F3FDB
:1045F00021212121212121212121212121212121AB
:104600002121212121212121212121212121213F7C
:104610003F3F3F3F3F3F3F3F3F3F3F3F3F3F3F3FAA
:104620003F3F3F3F3F3F3F3F3F3F3F3F3F3F3F3F9A
:104630003F2121212121212121212121212121214C
:104640002121212121212121212121212121213F3C
:104650003F3F3F3F3F3F3F3F3F3F3F3F3F3F3F3F6A
:104660003F3F3F3F3F3F3F3F3F3F3F3F3F3F3F3F5A
:104670003F3F2121212121212121212121212121EE
:104680002121212121212121212121212121213FFC
:104690003F3F3F3F3F3F3F3F3F3F3F3F3F3F3F3F2A
:1046A0003F3F3F3F3F3F3F3F3F3F3F3F3F3F3F3F1A
:1046B0003F3F3F2121212121212121212121212190
:1046C0002121212121212121212121212121213FBC
:1046D0003F3F3F3F3F3F3F3F3F3F3F3F3F3F3F3FEA
:1046E0003F3F3F3F3F3F3F3F3F3F3F3F3F3F3F3FDA
:1046F0003F3F3F3F21212121212121212121212132
:104700002121212121212121212121212121213F7B
:104710003F3F3F3F3F3F3F3F3F3F3F3F3F3F3F3FA9
:104720003F3F3F3F3F3F3F3F3F3F3F3F3F3F3F3F99
:104730003F3F3F3F3F2121212121212121212121D3
:104740002121212121212121212121212121213F3B
:104750003F3F3F3F3F3F3F3F3F3F3F3F3F3F3F3F69
:104760003F3F3F3F3F3F3F3F3F3F3F3F3F3F3F3F59
:104770003F3F3F3F3F3F2121212121212121212175
:104780002121212121212121212121212121213FFB
:104790003F3F3F3F3F3F3F3F3F3F3F3F3F3F3F3F29
:1047A0003F3F3F3F3F3F3F3F3F3F3F3F3F3F3F3F19
:1047B0003F3F3F3F3F3F3F21212121212121212117
:1047C0002121212121212121212121212121213FBB
:1047D0003F3F3F3F3F3F3F3F3F3F3F3F3F3F3F3FE9
:1047E0003F3F3F3F3F3F3F3F3F3F3F3F3F3F3F3FD9
:1047F0003F3F3F3F3F3F3F3F2121212121212121B9
:104800002121212121212121212121212121213F7A
:104810003F3F3F3F3F3F3F3F3F3F3F3F3F3F3F3FA8
:104820003F3F3F3F3F3F3F3F3F3F3F3F3F3F3F3F98
:104830003F3F3F3F3F3F3F3F3F212121212121215A
:104840002121212121212121212121212121213F3A
:104850003F3F3F3F3F3F3F3F3F3F3F3F3F3F3F3F68
:104860003F3F3F3F3F3F3F3F3F3F3F3F3F3F3F3F58
:104870003F3F3F3F3F3F3F3F3F3F212121212121FC
:104880002121212121212121212121212121213FFA
:104890003F3F3F3F3F3F3F3F3F3F3F3F3F3F3F3F28
:1048A0003F3F3F3F3F3F3F3F3F3F3F3F3F3F3F3F18
:1048B0003F3F3F3F3F3F3F3F3F3F3F21212121219E
:1048C0002121212121212121212121212121213FBA
:1048D0003F3F3F3F3F3F3F3F3F3F3F3F3F3F3F3FE8
:1048E0003F3F3F3F3F3F3F3F3F3F3F3F3F3F3F3FD8
:1048F0003F3F3F3F3F3F3F3F3F3F3F3F2121212140
:104900002121212121212121212121212121213F79
:104910003F3F3F3F3F3F3F3F3F3F3F3F3F3F3F3FA7
:104920003F3F3F3F3F3F3F3F3F3F3F3F3F3F3F3F97
:104930003F3F3F3F3F3F3F3F3F3F3F3F3F212121E1
:104940002121212121212121212121212121213F39
:104950003F3F3F3F3F3F3F3F3F3F3F3F3F3F3F3F67
:104960003F3F3F3F3F3F3F3F3F3F3F3F3F3F3F3F57
:104970003F3F3F3F3F3F3F3F3F3F3F3F3F3F212183
:104980002121212121212121212121212121213FF9
:104990003F3F3F3F3F3F3F3F3F3F3F3F3F3F3F3F27
:1049A0003F3F3F3F3F3F3F3F3F3F3F3F3F3F3F3F17
:1049B0003F3F3F3F3F3F3F3F3F3F3F3F3F3F3F2125
:1049C0002121212121212121212121212121213FB9
:1049D0003F3F3F3F3F3F3F3F3F3F3F3F3F3F3F3FE7
:1049E0003F3F3F3F3F3F3F3F3F3F3F3F3F3F3F3FD7
:1049F0003F3F3F3F3F3F3F3F3F3F3F3F3F3F3F3FC7
:104A00002121212121212121212121212121213F78
:104A10003F3F3F3F3F3F3F3F3F3F3F3F3F3F3F3FA6
:104A20003F3F3F3F3F3F3F3F3F3F3F3F3F3F3F3F96
:104A30003F3F3F3F3F3F3F3F3F3F3F3F3F3F3F3F86
:104A40003F21212121212121212121212121213F1A
:104A50003F3F3F3F3F3F3F3F3F3F3F3F3F3F3F3F66
:104A60003F3F3F3F3F3F3F3F3F3F3F3F3F3F3F3F56
:104A70003F3F3F3F3F3F3F3F3F3F3F3F3F3F3F3F46
:104A80003F3F212121212121212121212121213FBC
:104A90003F3F3F3F3F3F3F3F3F3F3F3F3F3F3F3F26
:104AA0003F3F3F3F3F3F3F3F3F3F3F3F3F3F3F3F16
:104AB0003F3F3F3F3F3F3F3F3F3F3F3F3F3F3F3F06
:104AC0003F3F3F2121212121212121212121213F5E
:104AD0003F3F3F3F3F3F3F3F3F3F3F3F3F3F3F3FE6
:104AE0003F3F3F3F3F3F3F3F3F3F3F3F3F3F3F3FD6
:104AF0003F3F3F3F3F3F3F3F3F3F3F3F3F3F3F3FC6
:104B00003F3F3F3F21212121212121212121213FFF
:104B10003F3F3F3F3F3F3F3F3F3F3F3F3F3F3F3FA5
:104B20003F3F3F3F3F3F3F3F3F3F3F3F3F3F3F3F95
:104B30003F3F3F3F3F3F3F3F3F3F3F3F3F3F3F3F85
:104B40003F3F3F3F3F212121212121212121213FA1
:104B50003F3F3F3F3F3F3F3F3F3F3F3F3F3F3F3F65
:104B60003F3F3F3F3F3F3F3F3F3F3F3F3F3F3F3F55
:104B70003F3F3F3F3F3F3F3F3F3F3F3F3F3F3F3F45
:104B80003F3F3F3F3F3F2121212121212121213F43
:104B90003F3F3F3F3F3F3F3F3F3F3F3F3F3F3F3F25
:104BA0003F3F3F3F3F3F3F3F3F3F3F3F3F3F3F3F15
:104BB0003F3F3F3F3F3F3F3F3F3F3F3F3F3F3F3F05
:104BC0003F3F3F3F3F3F3F21212121212121213FE5
:104BD0003F3F3F3F3F3F3F3F3F3F3F3F3F3F3F3FE5
:104BE0003F3F3F3F3F3F3F3F3F3F3F3F3F3F3F3FD5
:104BF0003F3F3F3F3F3F3F3F3F3F3F3F3F3F3F3FC5
:104C00003F3F3F3F3F3F3F3F212121212121213F86
:104C10003F3F3F3F3F3F3F3F3F3F3F3F3F3F3F3FA4
:104C20003F3F3F3F3F3F3F3F3F3F3F3F3F3F3F3F94
:104C30003F3F3F3F3F3F3F3F3F3F3F3F3F3F3F3F84
:104C40003F3F3F3F3F3F3F3F3F2121212121213F28
:104C50003F3F3F3F3F3F3F3F3F3F3F3F3F3F3F3F64
:104C60003F3F3F3F3F3F3F3F3F3F3F3F3F3F3F3F54
:104C70003F3F3F3F3F3F3F3F3F3F3F3F3F3F3F3F44
:104C80003F3F3F3F3F3F3F3F3F3F21212121213FCA
:104C90003F3F3F3F3F3F3F3F3F3F3F3F3F3F3F3F24
:104CA0003F3F3F3F3F3F3F3F3F3F3F3F3F3F3F3F14
:104CB0003F3F3F3F3F3F3F3F3F3F3F3F3F3F3F3F04
:104CC0003F3F3F3F3F3F3F3F3F3F3F212121213F6C
:104CD0003F3F3F3F3F3F3F3F3F3F3F3F3F3F3F3FE4
:104CE0003F3F3F3F3F3F3F3F3F3F3F3F3F3F3F3FD4
:104CF0003F3F3F3F3F3F3F3F3F3F3F3F3F3F3F3FC4
:104D00003F3F3F3F3F3F3F3F3F3F3F3F2121213F0D
:104D10003F3F3F3F3F3F3F3F3F3F3F3F3F3F3F3FA3
:104D20003F3F3F3F3F3F3F3F3F3F3F3F3F3F3F3F93
:104D30003F3F3F3F3F3F3F3F3F3F3F3F3F3F3F3F83
:104D40003F3F3F3F3F3F3F3F3F3F3F3F3F21213FAF
:104D50003F3F3F3F3F3F3F3F3F3F3F3F3F3F3F3F63
:104D60003F3F3F3F3F3F3F3F3F3F3F3F3F3F3F3F53
:104D70003F3F3F3F3F3F3F3F3F3F3F3F3F3F3F3F43
:104D80003F3F3F3F3F3F3F3F3F3F3F3F3F3F213F51
:104D90003F3F3F3F3F3F3F3F3F3F3F3F3F3F3F3F23
:104DA0003F3F3F3F3F3F3F3F3F3F3F3F3F3F3F3F13
:104DB0003F3F3F3F3F3F3F3F3F3F3F3F3F3F3F3F03
:104DC0003F3F3F3F3F3F3F3F3F3F3F3F3F3F3F3FF3
:104DD000FF0101010101010101010101715151575F
:104DE000555555DD0101010101010101010101FFDD
:104DF000FF00000000000000804020202020203F15
:104E00003F2121212020408000000000000000FF01
:104E1000FF0000F008040281402010101010101054
:104E2000101010101010204081020408F00000FF44
:104E3000FF80809FA0A09F80808080808080808075
:104E40008080808080808080809FA0A09F8080FF65
:104E5000FF0101010101010101010101010101F94C
:104E6000F9193161C181010101010101010101FF54
:104E7000FF0000000000000103060C183060C0FFB6
:104E8000FFC06030180D070200000000000000FFA6
:104E9000FF00000000000080C06030180C0603FF17
:104EA000FF03060C18B0E04000000000000000FF07
:104EB000FF80808080808080808080808080809F54
:104EC0009F988C868381808080808080808080FF16
:104ED000FF0101F94949490109F909017981018174
:104EE0000181790109F9090101010101010101FFB4
:104EF000FF000003000000000203020080C36130D5
:104F0000190B08888A8B8A8888888800000000FF2F
:104F1000FF0000000000000000FC060301E0301864
:104F20000C86C3613018080888888800000000FFDC
:104F3000FF80808080808080809F8080809F8080B4
:104F4000809F8080809C868381989880808080FF6D
:104F5000FF0101F1010101010101F10101E1111163
:104F60001111210101F1111111111121C10101FFD3
:104F7000FF00007FC080000080C07F000083040429
:104F80000404F80000FF0004040404847B0000FF14
:104F9000FF0000003879890909080808080809098C
:104FA000090988C8C8C989898F818100000000FF6C
:104FB000FF80808080808081828282828282828261
:104FC00082878F9F9F9F888888888F80808080FFBE
:104FD000FF01010101010181010191E16121313DE7
:104FE0003D312161E191010181010101010101FFD7
:104FF000FF008080C4F8180C0703C16030180C044F
:10500000040C183060C103070C18F8C4808000FF3E
:10501000FF000101231F987060C083060C18302028
:105020002030180C0683C0E030181F23010100FF58
:10503000FF808080808080808281898786848CBC8C
:10504000BC8C84868789808081808080808080FF7E
:105050000000000000000000000000000000000050
:1050600000C040404040404040404040404040C080
:105070000000000000000000000000000000000030
:1050800000FF000080C020100884C2A0909080FF24
:105090000000000000000000000000000000000010
:1050A00000FF00000103040810214305090901FF66
:1050B00000000000000000000000000000000000F0
:1050C00000030202020202020202020202020203C0
:1050D000C040404040404040404040404040C00010
:1050E00000000000000000000000000000000000C0
:1050F000FF809090A0C284081020C0800000FF00B4
:10510000000000000000000000000000000000009F
:10511000FF01090905432110080403010000FF00F5
:10512000000000000000000000000000000000007F
:10513000030202020202020202020202020203004F
:10514000000000000000000000000000000000005F
:10515000FF0101F919F9F90101F9F91919F9F90131
:1051600001F9F91919F9F90101F9F919191901FFE9
:10517000FF0000FF003F3F30303F3F00003F3F3027
:10518000303F3F00003F3F30303F3F00000000FF16
:10519000FF0000FF00001D15151700508007041FB9
:1051A0000480400E1B11151D04000000000000FFCC
:1051B000FF8080BF80808080808080A090898686EC
:1051C0008990A0808080808080808080808080FF27
:1051D000FF0101F919F9F90101F9F91919F9F901B1
:1051E00001F9F91919F9F90101F9F919191901FF69
:1051F000FF0000FF003F3F30303F3F00003F3F30A7
:10520000303F3F00003F3F30303F3F00000000FF95
:10521000FF0000FF00001D15151700100007041FF8
:105220000400804E1B11151D04000000000000FF4B
:10523000FF8080BF80808080808080848890888488
:10524000828180808080808080808080808080FFDC
:10525000000000000000C0C080000000000000E06E
:10526000E000000000000080C0C00000000000005E
:10527000000000000080808183878E1C1800000FD2
:105280000F0000181C8E87838180800000000000C2
:105290000000000000010181C1E17138180000F038
:1052A000F00000183871E1C1810101000000000028
:1052B00000000000000003030100000000000007E0
:1052C00007000000000000010303000000000000D0
:1052D0000307CE9C3870E4CC942444840404040472
:1052E0000404040484442494CCE470389CCE070362
:1052F0000000FF00010204091327CE9C3972E4CCA0
:10530000CCE472399CCE27130904020100FF00008F
:105310000000FF0080402090C8E473399C4E273382
:1053200033274E9C3973E4C89020408000FF000072
:10533000C0E073391C0E273329242221202020208D
:10534000202020202122242933270E1C3973E0C07D
:10535000F3274E9C3973E5C9912141810101010177
:105360000101010181412191C9E573399C4E27F367
:10537000FF000000010204091327CE9C3972E4CC1F
:10538000CCE472399CCE271309040201000000FF0F
:10539000FF00000080402090C8E473399C4E273302
:1053A00033274E9C3973E4C890204080000000FFF2
:1053B000CFE472399CCEA7938984828180808080DB
:1053C000808080808182848993A7CE9C3972E4CFCB
:1053D00000FCFC0C0C0C0C0C0C0C0C0C0C0C0C0C39
:1053E0000C0C0C0C0C0C0C0C0C0C0C0C0CFCFC0029
:1053F00000FFFF00000000000000000000000000AF
:1054000000000000000000000000000000FFFF009E
:1054100000FFFFC0C0C0C0C0C0C0C0C0C0C0C0C0CE
:10542000C0C0C0C0C0C0C0C0C0C0C0C0C0FFFF00BE
:105430000030303030303030303030303030303F8D
:105440003F3030303030303030303030303030007D
:10545000FF0101010101010101010101010101013E
:10546000010101010101010101010101010101012C
:10547000010101010101010101010101010101011C
:10548000010101010101010101010101010101FF0E
:10549000FF0000000000000000000000000000000D
:1054A00000000000000000000000000000000000FC
:1054B00000000000000000000000000000000000EC
:1054C000000000000000000000000000000000FFDD
:1054D000FF000000000000000000000000000000CD
:1054E00000000000000000000000000000000000BC
:1054F00000000000000000000000000000000000AC
:10550000000000000000000000000000000000FF9C
:10551000FF8080808080808080808080808080800C
:10552000808080808080808080808080808080807B
:10553000808080808080808080808080808080806B
:10554000808080808080808080808080808080FFDC
:1055500000FE020202020202020202020202020231
:10556000020202020202020202020202020202021B
:10557000020202020202020202020202020202020B
:105580000202020202020202020202020202FE0001
:1055900000FF00000000000000000000000000000C
:1055A00000000000000000000000000000000000FB
:1055B00000000000000000000000000000000000EB
:1055C0000000000000000000000000000000FF00DC
:1055D00000FF0000000000000000000000000000CC
:1055E00000000000000000000000000000000000BB
:1055F00000000000000000000000000000000000AB
:105600000000000000000000000000000000FF009B
:10561000007F40404040404040404040404040408B
:10562000404040404040404040404040404040407A
:10563000404040404040404040404040404040406A
:1056400040404040404040404040404040407F005B
:10565000000000000000000000000000000000004A
:10566000000000000000000000000000000000003A
:10567000000000000000000000000000000000002A
:10568000000000000000000000000000000000001A
:10569000000000000000000000000000000000000A
:1056A00000000000000000000000000000FC0202FA
:1056B00002FC0000000000000000000000000000EC
:1056C00000000000000000000000000000000000DA
:1056D00000000000000000000000000000000000CA
:1056E00000000000000000000000000000FF0000BB
:1056F00000FF0000000000000000000000000000AB
:105700000000000000000000000000000000000099
:105710000000000000000000804040404040404049
:1057200040404040404040404040404040FFC0C0BA
:10573000C0FF40404040404040404040404040402A
:105740004040404040800000000000000000000099
:10575000000000000000000003040404040404042A
:1057600004040404040404040404040404FF0707F8
:1057700007FF0404040404040404040404040404EB
:105780000404040404030000000000000000000002
:105790000000000000000000000000000000000009
:1057A00000000000000000000000000000FF0000FA
:1057B00000FF0000000000000000000000000000EA
:1057C00000000000000000000000000000000000D9
:1057D00000000000000000000000000000000000C9
:1057E000000000000000000000000000007F80803A
:1057F000807F0000000000000000000000000000AA
:105800000000000000000000000000000000000098
:105810000000000000000000000000000000000088
:105820000000000000000000000000000000000078
:105830000000000000000000000000000000000068
:105840000000000000000000000000000000000058
:105850000000000000000000000000000000000048
:105860000000000000000000000000000000000038
:105870000000000000000000000000000000000028
:105880000000000000000000000000000000000018
:105890000000000000000000000000000000000008
:1058A00000000000000000000000000000FC0202F8
:1058B00002FC0000000000000000000000000000EA
:1058C00000000000000000000000000000000000D8
:1058D00000000000000000000000000000000000C8
:1058E00000000000000000000000000000FF0000B9
:1058F00000FF0000000000000000000000000000A9
:105900000000000000000000000000000000000097
:105910000000000000000000804040404040404047
:1059200040404040404040404040404040FFE0E078
:10593000E0FF404040404040404040404040404008
:105940004040404040800000000000000000000097
:105950000000000000000000030404040404040428
:1059600004040404040404040404040404FF0707F6
:1059700007FF0404040404040404040404040404E9
:105980000404040404030000000000000000000000
:105990000000000000000000000000000000000007
:1059A00000000000000000000000000000FF0000F8
:1059B00000FF0000000000000000000000000000E8
:1059C00000000000000000000000000000000000D7
:1059D00000000000000000000000000000000000C7
:1059E000000000000000000000000000007F808038
:1059F000807F0000000000000000000000000000A8
:105A00000000000000000000000000000000000096
:105A10000000000000000000000000000000000086
:105A20000000000000000000000000000000000076
:105A30000000000000000000000000000000000066
:105A40000000000000000000000000000000000056
:105A50000000000000000000000000000000000046
:105A60000000000000000000000000000000000036
:105A70000000000000000000000000000000000026
:105A80000000000000000000000000000000000016
:105A90000000000000000000000000000000000006
:105AA00000000000000000000000000000FC0202F6
:105AB00002FC0000000000000000000000000000E8
:105AC00000000000000000000000000000000000D6
:105AD00000000000000000000000000000000000C6
