:020000040800F2
:10000000500C002045010008450E0008470E00086E
:100010004B0E00084F0E0008530E000800000000B1
:10002000000000000000000000000000570E000863
:10003000590E0008000000005B0E00085D0E00086D
:100040005F0100085F0100085F0100085F01000810
:100050005F0100085F0100085F0100085F01000800
:100060005F0100085F0100085F0100085F010008F0
:100070005F0100085F0100085F0100085F010008E0
:100080005F0100085F0100085F0100085F010008D0
:100090005F0100085F0100085F0100085F010008C0
:1000A0005F0100085F0100085F0100085F010008B0
:1000B0005F0100085F0100085F0100085F010008A0
:1000C0005F0100085F0100085F0100085F01000890
:1000D0005F010008690E00085F0100085F01000869
:1000E0005F0100085F0100085F0100085F01000870
:1000F0005F0100085F0100085F0100085F01000860
:100100005F0100085F0100085F0100085F0100084F
:100110005F0100085F0100085F0100085F0100083F
:100120005F0100085F0100085F0100085F0100082F
:10013000DFF80CD002F0D0F800480047310E00087C
:10014000500C00200648804706480047FEE7FEE7BF
:10015000FEE7FEE7FEE7FEE7FEE7FEE7FEE7FEE777
:1001600047020008310100080CB500200190009002
:100170006C48006840F480306A49086000BF6948F4
:10018000006800F4003000900198401C0190009835
:1001900018B90198B0F5A06FF1D16248006800F479
:1001A000003010B10120009001E000200090009884
:1001B000012843D15C48006840F010005A490860AB
:1001C0000846006820F0030008600846006840F018
:1001D0000200086053484068524948600846406839
:1001E00048600846406840F48060486008464068BF
:1001F00020F47C1048600846406840F4E8104860ED
:100200000846006840F08070086000BF45480068FC
:1002100000F000700028F9D04248406820F0030048
:10022000404948600846406840F00200486000BF0E
:100230003C48406800F00C000828F9D10CBD10B50E
:10024000FFF792FF10BD10B53648006840F001007E
:1002500034490860084640683449084031494860DC
:1002600008460068324908402E4908600846006880
:1002700020F4802008600846406820F4FE004860B2
:100280004FF41F008860FFF7DAFF4FF00060294944
:10029000086010BD10B5002100200022214B5B68D2
:1002A00003F00C0121B1042906D0082928D107E068
:1002B000214B224C236027E01F4B204C236023E07E
:1002C000184B5B6803F47010164B5B6803F48032C4
:1002D000022303EB904022B9194B4343174C236090
:1002E0000DE0104B5B6803F4003323B1144B434320
:1002F000124C236003E0104B4343104C236003E097
:100300000D4B0E4C236000BF00BF064B5B68C3F370
:1003100003130C4CE15C094B1B68CB40074C23607A
:1003200010BD000000100240002002400000FFF855
:10033000FFFFF6FE08ED00E000127A00000000204A
:1003400000093D000400002031490143314A116099
:10035000704770B5002100230F22C47804B32D4CE0
:10036000246804F4E064C4F5E064210AC1F10403E4
:10037000CA40447804FA03F1847814402143090107
:10038000254C0678A155047804F01F050124AC40E3
:1003900005786D11AD0005F1E025C5F8004109E0D3
:1003A000047804F01F050124AC401C4D067876113A
:1003B00045F8264070BD1A4A0A400243154B1B1FE0
:1003C0001A60704739B1134A121D12680243114B6B
:1003D0001B1D1A6006E00F4A121D126882430D4B66
:1003E0001B1D1A607047042808D14FF0E0210969ED
:1003F00041F004014FF0E022116107E04FF0E021ED
:10040000096921F004014FF0E022116170470000FA
:100410000000FA050CED00E000E400E080E100E0FF
:1004200080FFFF1F10B50446CC48844208D101214B
:10043000042000F02DFB0021042000F029FB46E001
:10044000C748844208D10121082000F021FB002187
:10045000082000F01DFB3AE0C248844208D1012187
:10046000102000F015FB0021102000F011FB2EE001
:10047000BD48844208D10121202000F009FB002161
:10048000202000F005FB22E0B848844208D1012179
:10049000402000F0FDFA0021402000F0F9FA16E0BB
:1004A000B348844208D10121802000F0F1FA0021F4
:1004B000802000F0EDFA0AE0AE48844207D1012125
:1004C000801500F0E5FA0021A01500F0E1FA10BD5A
:1004D00010B50121084600F0DBFA0021012000F0F0
:1004E000D7FA10BD2DE9F041024600250026002074
:1004F00000230024002791F803C00CF00F0591F8A9
:1005000003C00CF0100CBCF1000F03D091F802C036
:100510004CEA050591F800C0BCF1000F31D0146819
:1005200000202BE04FF0010C0CFA00F3B1F800C0F2
:100530000CEA03069E4220D183004FF00F0C0CFA08
:1005400003F7BC4305FA03FC4CEA040491F803C02A
:10055000BCF1280F06D14FF0010C0CFA00FCC2F8D8
:1005600014C00AE091F803C0BCF1480F05D14FF068
:10057000010C0CFA00FCC2F810C0401C0828D1D3B2
:100580001460B1F800C0BCF1FF0F34DD54680020E6
:100590002EE000F1080C4FF0010808FA0CF3B1F856
:1005A00000C00CEA03069E4221D183004FF00F0CDD
:1005B0000CFA03F7BC4305FA03FC4CEA040491F877
:1005C00003C0BCF1280F05D100F1080C08FA0CF8A3
:1005D000C2F8148091F803C0BCF1480F07D100F1B4
:1005E000080C4FF0010808FA0CF8C2F81080401C03
:1005F0000828CED35460BDE8F0814FF6FF7101802A
:10060000022181700421C170704702460020936866
:100610000B400BB1012000E00020704701468868C4
:1006200080B2704702460020D3680B400BB1012016
:1006300000E0002070470146C86880B27047016141
:100640007047416170470AB1016100E04161704744
:10065000C16070474FF480320A43826181618261D8
:1006600082698269704702460020434B18684FF642
:100670008073184040EA021008433F4B18607047EF
:100680003E49C8617047F0B50A46002300240021A6
:10069000002500F00046B6F1004F02D1364EF16958
:1006A00001E0354E7168C0F3034583B200F4401693
:1006B000B6F5401F08D121F070612F4E766826F004
:1006C00070662D4F7E6012E000F48016B6F5801F34
:1006D00006D1032606FA05F4A14341F0706106E055
:1006E000460D360103FA06F6B14341F0706122B1BE
:1006F000460D360103FA06F6314300F00046B6F126
:10070000004F02D11C4EF16101E01B4E7160F0BD43
:1007100030B500228B071C0F0F2303FA04F2164B8F
:1007200008338C1053F824309343134C08348D1045
:1007300044F8253023468C1053F824308C07240FBE
:1007400000FA04F423430C4C08348D1044F825308F
:1007500030BD0A49DC3108607047000000080140E4
:10076000000C01400010014000140140001801403D
:10077000001C014000200140000001400000204218
:10078000DF48006840F00100DD4908600846406825
:10079000DC490840DA49486008460068DA49084000
:1007A000D74908600846006820F4802008600846A1
:1007B000406820F4FE0048604FF41F0088607047D6
:1007C000CF49096821F48031CD4A1160114609688A
:1007D00021F480211160B0F5803F03D0B0F5802F67
:1007E0000ED106E0C649096841F48031C44A11605F
:1007F00007E0C349096841F4A021C14A116000E043
:1008000000BF00BF704710B5014600220023002042
:100810004A11012A02D1BA4C236806E0022A02D109
:10082000B74C236A01E0B64C636A01F01F02012451
:1008300094401C400CB1012000E0002010BD38B5F0
:10084000002000900024002500BF3120FFF7DBFFCF
:1008500005460098401C00900098B0F5A06F01D0AC
:10086000002DF2D03120FFF7CEFF08B1012400E0C7
:100870000024204638BD01460020A14A106820F01F
:10088000F80040EAC10010607047A0490860704756
:10089000024600209A4B586820F47C1042EA01037B
:1008A0001843974B5860704798490866704701464F
:1008B0000020934A506820F00300084350607047BE
:1008C0008F48406800F00C007047014600208C4AB9
:1008D000506820F0F0000843506070470146002047
:1008E000874A506820F4E060084350607047014632
:1008F0000020834A506820F4605040EAC1005060F4
:10090000704729B17E4A527A02437D4B5A7204E005
:100910007B4A527A82437A4B5A7270477B49D8316C
:100920000860704701460020754A506820F4404036
:100930000843506070470021714A20321170704A9C
:1009400082F82010012802D004280AD104E00121F5
:100950006B4A2032117005E00521694A203211707E
:1009600000E000BF00BF70476949086070476449F4
:10097000096A0143624A1162704765494439086057
:10098000704730B500210022002400235C4D6D68C3
:1009900005F00C0121B1042905D0082923D105E077
:1009A0005C4D056022E05B4D05601FE0544D6D68B5
:1009B00005F47012524D6D6805F48034022505EB84
:1009C00092421CB9544D554305600BE04C4D6D6887
:1009D00005F400351DB1504D5543056002E04D4D05
:1009E0005543056002E04B4D056000BF00BF444D1C
:1009F0006D6805F0F0010909484D6B5C0568DD4044
:100A000045603F4D6D6805F4E061090A434D6B5C3C
:100A10004568DD4085603A4D6D6805F46051C90A4E
:100A20003E4D6B5C4568DD40C560354D6D6805F435
:100A30004041890B3A4D6B5CC568B5FBF3F5056128
:100A400030BD29B12E4A526902432D4B5A6104E050
:100A50002B4A526982432A4B5A61704729B1284A6E
:100A600092690243264B9A6104E0254A92698243C7
:100A7000234B9A61704729B1214AD2690243204B26
:100A8000DA6104E01E4AD26982431D4BDA61704785
:100A900029B11B4AD2680243194BDA6004E0184AB4
:100AA000D2688243164BDA60704729B1144A126942
:100AB0000243134B1A6104E0114A12698243104B3E
:100AC0001A61704712494039086070470F49C8647D
:100AD00070470B49C87170470948406A40F0807000
:100AE00007494862704701460020054A92680A405B
:100AF0000AB1012000E00020704701498872704768
:100B0000001002400000FFF8FFFFF6FE0000424226
:100B10008004424200127A0000093D0014000020C7
:100B20002400002010B50446BE48844208D10121AB
:100B30008014FFF7ADFF0021A014FFF7A9FF16E016
:100B4000B948844208D101210014FFF7AEFF00210B
:100B50002014FFF7AAFF0AE0B448844207D101211C
:100B6000C013FFF7A2FF0021E013FFF79EFF10BDA7
:100B700010B50022028802F441520B884C882343AE
:100B80008C882343CC8823430C8923434C892343FB
:100B90008C892343CC8923431A430280838B4FF2F1
:100BA000FF74234083830B8A038210BD2DE9F04F2D
:100BB00085B005460C464FF0000902274FF00008AB
:100BC0004FF0010B0026B246A88B4FF240010840BF
:100BD000A88302202884B5F81C90A068022801D1BF
:100BE00000BF38E0A08810B94FF0010B01E04FF0D2
:100BF000020B8D48854200D100E000BF6846FFF738
:100C0000C0FEDDF800A0E088B0F5007F0AD14FEA11
:100C10001A2000EB80004000A168B0FBF1F0401DFD
:100C200086B20BE04FEA4B10BAFBF0F000EB80000D
:100C30004000A168B0FBF1F0401D86B20A20B6FB6F
:100C4000F0F606F00108A6EB0800C0F34F074FF6D8
:100C5000FF7000EA0828022F01DBFF2F02DD0227C8
:100C60004FF00008E08840EA080038432884A08854
:100C7000A1890843618808432188084340F4006043
:100C800040EA0909A5F81C9005B0BDE8F08F0021E5
:100C9000018041808180C180018141818181C18148
:100CA0000721018270470021018041808180C1803D
:100CB0000221816000218181704721B1028842F0C8
:100CC0004002028004E002884FF6BF731A4002809F
:100CD000704721B1828B42F48062828304E0828B70
:100CE0004FF6FF331A408283704730B5002400234B
:100CF0000C110125A540ABB21AB185881D43858032
:100D000002E085889D43858030BD1AB183880B43FE
:100D1000838002E083888B438380704781817047A2
:100D20000146888970474FF6FF62914204D00288DD
:100D300042F48072028004E002884FF6FF631A409A
:100D40000280704721B1828842F00402828004E070
:100D500082884FF6FB731A408280704702884FF2F8
:100D6000FF731A40028002880A430280704701889C
:100D700041F480510180704721B1028842F4005251
:100D8000028004E002884DF6FF731A40028070472B
:100D900002460020012901D0108B00E0908A7047A4
:100DA0000146088A7047B1F5804F04D1028842F4A9
:100DB0008042028004E002884BF6FF731A400280F2
:100DC00070470246002013890B400BB1012000E060
:100DD00000207047CA4302817047F0B502460020E8
:100DE00000240023002501F00F070126BE40B4B205
:100DF0000B1101269E40B3B2968806EA03051689B8
:100E0000264016B10DB1012000E00020F0BD10B564
:100E1000002201F00F040123A3409AB2D3430381BF
:100E200010BD00000030014000380040003C004090
:100E30004FF4A060FFF788FA00F018F800F016FAF7
:100E400000BFFEE7704700BFFEE700BFFEE700BF40
:100E5000FEE700BFFEE770477047704710B500F02F
:100E600054F800F073F810BD7047000070B56FF0D3
:100E70000400FFF7B8FA294800684FF47A72B0FB13
:100E8000F2F1B1F1807F01D301201DE021F07F401C
:100E9000401E4FF0E022506150170F22002807DA61
:100EA00013071D0E1E4B00F00F04241F1D5503E0F9
:100EB00013071C0E1B4B1C5400BF00204FF0E022F8
:100EC000906107201061002008B100BFFEE74FF0DD
:100ED000E020006940F001004FF0E021086170BDA2
:100EE0001149086000BF104909680029FBD170470B
:100EF00000B50246002305E04FF47A70FFF7F0FFDB
:100F0000581CC3B29342F7D300BD0748006820B114
:100F100005480068401E0449086070470000002032
:100F200018ED00E000E400E02800002010B500F01B
:100F30001DF800F029F910BD10B5094800F0E7F8D8
:100F400010BD10B5074800F0E2F810BD0648006873
:100F500020B105480068401E034908607047000042
:100F600050000020500400202C00002000B587B065
:100F700001218803FFF77FFD01210920FFF76EFDA6
:100F80004FF48050ADF8040003208DF806001020C7
:100F90008DF8070001A9B348FFF7A4FA4FF4805178
:100FA000B048FFF74CFB4FF46040ADF8040003205D
:100FB0008DF8060018208DF8070001A9A948FFF751
:100FC00091FA0020ADF808004FF48270ADF80A00E5
:100FD0000020ADF80C00ADF80E00ADF810004FF495
:100FE0000070ADF812000020ADF81400ADF8160046
:100FF0000720ADF8180002A99B48FFF7B9FD0121B1
:101000009948FFF75AFE4FF48060ADF804000320C2
:101010008DF8060010208DF8070001A99148FFF710
:1010200061FA4FF40060ADF8040003208DF806006B
:1010300010208DF8070001A98A48FFF753FA4FF4F2
:1010400000618848FFF7FBFA4FF480618548FFF79D
:10105000F6FA642000F065FC4FF480618148FFF7E8
:10106000F0FA642000F05DFC4FF480617D48FFF7EA
:10107000E6FA07B000BD10B5044600BF02217A4869
:10108000FFF79FFE0028F9D021467748FFF746FE7C
:1010900000BF01217448FFF794FE0028F9D0724880
:1010A000FFF73EFE10BD10B504464FF400616D48D9
:1010B000FFF7C7FA4FF480516A48FFF7C2FA20469B
:1010C000FFF7D9FF4FF480516648FFF7B8FA4FF4A5
:1010D00000616448FFF7B3FA10BD10B504464FF441
:1010E00000616048FFF7ABFA4FF480515D48FFF7AD
:1010F000A8FA2046FFF7BFFF4FF480515948FFF789
:101100009EFA4FF400615748FFF799FA10BD2DE998
:10111000F04105462F46002416E004F1B001C8B2A4
:10112000FFF7C1FF0020FFF7BEFF1020FFF7BBFF56
:10113000002605E017F8010BFFF7CFFF701CC6B2C1
:10114000802EF7DB601CC4B2082CE6DBBDE8F08122
:1011500070B5002415E004F1B001C8B2FFF7A3FF99
:101160000020FFF7A0FF1020FFF79DFF002504E0FF
:101170000020FFF7B2FF681CC5B2802DF8DB601CB1
:10118000C4B2082CE7DB70BD10B5AE20FFF78BFFB3
:101190002020FFF788FF1020FFF785FFB020FFF722
:1011A00082FFC820FFF77FFF0020FFF77CFF1020A1
:1011B000FFF779FF4020FFF776FF8120FFF773FFED
:1011C000FF20FFF770FFA120FFF76DFFA620FFF7BC
:1011D0006AFFA820FFF767FF3F20FFF764FFA42006
:1011E000FFF761FFD320FFF75EFF0020FFF75BFFF3
:1011F000D520FFF758FFF020FFF755FFD920FFF764
:1012000052FF2220FFF74FFFDA20FFF74CFF12209A
:10121000FFF749FFDB20FFF746FF2020FFF743FFE2
:101220008D20FFF740FF1420FFF73DFFAF20FFF7B1
:101230003AFFFFF78DFF10BD10B58D20FFF733FF8C
:101240001420FFF730FFAF20FFF72DFF10BD10B5C2
:101250008D20FFF728FF1020FFF725FFAE20FFF7B6
:1012600022FF10BD000C01400038004010B5FFF710
:101270005DFE10BD10B5002000F049FC10BD10B59A
:1012800000F041FC10BD2DE9F04105460E46144624
:1012900000F05BFB58B13146284600F068FB40EA9D
:1012A00004073A463146284600F06FFB0AE0314613
:1012B000284600F05CFB20EA04073A4631462846FF
:1012C00000F063FBBDE8F0812DE9FF4F81B080465F
:1012D0000C46994604EB0902511ECA1701EB5272E3
:1012E000D2102046E31704EB5373A2EBE302009203
:1012F000B8F1800F01DC402C02DD05B0BDE8F08FB5
:1013000047465DE00098B8B925462646E11704EB4C
:101310005171C910A4EBC103A9F10101DFF828C480
:101320001CF801109940CAB2E11704EB5171C810C2
:101330003946FFF7A8FF42E025462646E11704EBB1
:101340005171C910A4EBC101C1F10701FE4B595CF9
:10135000A346E31704EB5373DB10A4EBC3039940DC
:10136000CAB2E11705EB5171C8103946FFF78BFF80
:101370004FF0010A0BE02546E11704EB51710AEB2F
:10138000E100FF223946FFF77EFF0AF1010A0098CB
:101390008245F0DBA9F101010D19E91705EB517147
:1013A000C910A5EBC101E84B5A5C2646E11704EBD6
:1013B0005171CB10009958183946FFF764FF7F1C14
:1013C00003984044B84201DD802F9BDB00BF94E7C7
:1013D0002DE9F05F82460C461746E219511ECA17E6
:1013E00001EB5272D2102046E31704EB5373A2EBC9
:1013F000E309B9F1000F16D125462646E11704EBA3
:101400005171C910A4EBC103791EDFF83CC31CF86D
:1014100001109940CAB2E11704EB5171C81051464E
:10142000FFF731FF3FE025462646E11704EB5171F7
:10143000C910A4EBC101C1F10701C34B595CA3461C
:10144000E31704EB5373DB10A4EBC3039940CAB258
:10145000E11705EB5171C8105146FFF714FF4FF02B
:1014600001080BE02546E11704EB517108EBE100A0
:10147000FF225146FFF707FF08F10108C845F1DBDD
:10148000791E0D19E91705EB5171C910A5EBC101C2
:10149000AD4B5A5C2646E11704EB517109EBE100B4
:1014A0005146FFF7F0FEBDE8F09F2DE9F84F0446E6
:1014B000A146A246A54850444FEA500A5446214648
:1014C000484600F0FDFB2146009000F0A1FB83465A
:1014D00000F002FE074600229D4B00F0D6FC0546B8
:1014E00000F00DFE04462046BDE8F88F30B50346F7
:1014F0000BB9002030BD00219A0F9B00012A01D9B1
:10150000491C521A0F240DE04900920002EB93721D
:101510000D46012000EB45059B00AA4201D3521B5A
:10152000491C641E002CEFD10846E3E72DE9FF4F6C
:101530008BB092469B46DDE91889DBF800100C98C9
:10154000081A4043DAF800200B99521ADAF80030F2
:10155000591A02FB01000A900A9800F077FD0890E2
:10156000FFF7A3FF099000F0B7FD04460D46DBF836
:1015700000200C99501A00F072FDCDE90801DAF84C
:1015800000200B99501A00F06AFDCDE90601DDE953
:10159000082301F027FB06460F461A98002842D080
:1015A00042464B463046394600F0C8FBCDE90001C3
:1015B00001F0D8FB22462B46CDE9020100F065FC84
:1015C000CDE906010B9800F04AFDCDE90401DDE903
:1015D000062300F0B3FBCDE9080100F05EFDCAF878
:1015E000000042464B463046394600F0A7FBCDE9A5
:1015F000000101F005FC22462B46CDE9020100F076
:1016000044FCCDE906010C9800F029FDCDE9040168
:10161000DDE9062300F092FBCDE9080100F03DFD75
:10162000CBF8000041E042464B463046394600F0D8
:1016300026FCCDE9000101F095FB22462B46CDE9C1
:10164000020100F022FCCDE906010B9800F007FD35
:10165000CDE90401DDE9062300F070FBCDE90801C6
:1016600000F01BFDCAF8000042464B4630463946A2
:1016700000F005FCCDE9000101F0C2FB22462B463B
:10168000CDE9020100F001FCCDE906010C9800F063
:10169000E6FCCDE90401DDE9062300F04FFBCDE9CE
:1016A000080100F0FAFCCBF800000FB0BDE8F08FA5
:1016B0002DE9F04782460021504600F03DFD02D161
:1016C000002001460CE0504600F006FD8046214A0D
:1016D000214B00F0DAFB06460022204B00F047FCCD
:1016E000044600F00CFD1E498860BDE8F0871C49E7
:1016F000C86070471A4A1060516070472DE9F04188
:1017000006460F4614461D4639463046FFF7F2FF9F
:101710002846FFF7ECFF2046FFF7CAFFBDE8F0813F
:101720002DE9F04188B004460D461646059504960D
:101730000B49886800F0D0FC07460948C068084A91
:10174000CDE9007102900DE04000002062CF763FAD
:101750000000E03F6E861BF0F921094000806640E2
:1017600030000020516804AB106805AAFFF7DEFEC8
:101770000598069004980790DDE90601C4E9000188
:1017800008B0BDE8F0812DE9F04104460D4616464B
:101790001F46FFF774FD2946204600F081F9B0424C
:1017A00020D13A462946204600F0FCF8611EC8B216
:1017B0003B4632462946FFF7E6FF611CC8B23B466E
:1017C00032462946FFF7DFFF681CC1B23B4632466E
:1017D0002046FFF7D8FF681EC1B23B46324620467E
:1017E000FFF7D1FFBDE8F08170B506460C461546FF
:1017F0002146304600F054F9A8420BD10CB9002024
:1018000070BD601EC1B22A463046FFF7EDFF401C96
:10181000C0B2F5E70020F3E770B506460C46154662
:101820002146304600F03CF9A8420CD13F2C01D1B2
:10183000002070BD601CC1B22A463046FFF7D4FFBD
:10184000401CC0B2F5E70020F3E72DE9F04707465A
:10185000884615469A464FF0000900263C4615E09A
:10186000EAB2E0B24146FFF7D7FF8146EAB2E0B202
:101870004146FFF7B9FF064609EB0602A8EB060151
:1018800053462046FFF7A4FD601C04B241462046A3
:1018900000F006F9A84201D1802CE1DB7C1E15E0A6
:1018A000EAB2E0B24146FFF7B7FF8146EAB2E0B2E2
:1018B0004146FFF799FF064609EB0602A8EB060131
:1018C00053462046FFF784FD601E04B24146204681
:1018D00000F0E6F8A84201D1002CE1DCBDE8F08779
:1018E00001460878704710B50246012000E05043D9
:1018F0000B1EA1F10104E1B2F9D110BD10B50446EF
:101900000C48006858B9FFF7BAFCFFF7B3FC4FF476
:101910007A7090FBF4F007490860012010BD0020A8
:10192000FCE70449086000BF024909680029FBD1AF
:10193000704770472C000020054908707047044824
:101940000078704703490870704702480078704774
:101950004800002049000020002098490870704786
:1019600001209649087070479448007870470246F5
:101970009248007820B1924800EBC210405C70475A
:10198000904800EBC210405CF9E78C4B1B7823B108
:101990008B4B03EBC0135A5403E08A4B03EBC01389
:1019A0005A547047F0B514467F2801DC3F2900DD0A
:1019B000F0BD824A1278C2B3DCB1CD1701EB557588
:1019C000ED107F4E06EBC5152D5C0B46CE1701EBD7
:1019D0005676F610A1EBC6070126BE4035430A46EF
:1019E000CE1701EB5676F610754F07EBC616355439
:1019F00054E0CD1701EB5575ED10714E06EBC51592
:101A00002D5C0B46CE1701EB5676F610A1EBC60700
:101A10000126BE40B5430A46CE1701EB5676F610B6
:101A2000674F07EBC616355438E0FFE7DCB1CD173A
:101A300001EB5575ED10634E06EBC5152D5C0B469D
:101A4000CE1701EB5676F610A1EBC6070126BE4075
:101A500035430A46CE1701EB5676F610594F07EB81
:101A6000C61635541AE0CD1701EB5575ED10554EDD
:101A700006EBC5152D5C0B46CE1701EB5676F6101E
:101A8000A1EBC6070126BE40B5430A46CE1701EBBF
:101A90005676F6104B4F07EBC616355400BF87E756
:101AA000F0B504467F2C01DC3F2901DD0020F0BDAC
:101AB0004248007898B10A46C81701EB5070C01030
:101AC0003F4B03EBC010005D0D46CB1701EB53738A
:101AD000DB10A1EBC303184100F00100E7E70B4660
:101AE000C81701EB5070C010364F07EBC010005DF7
:101AF0000E46CF1701EB5777FF10A1EBC707384110
:101B000000F00100D3E710B5FFF716FA10BD10B5CD
:101B1000044622464FF48061294800F067F810BD62
:101B200010B54FF48061274800F067F810BD70B51C
:101B3000064636B1012E0BD0022E24D0032E3AD108
:101B400009E04FF480621F491D4800F03DF833E082
:101B5000FFF7E6FF30E0002412E000250DE0184812
:101B600000EBC410405D174901EBC411495D084307
:101B7000134901EBC41148556D1C802DEFDB641C2B
:101B8000082CEADB18E0002412E000250DE00C48E8
:101B900000EBC410405D0B4901EBC411495D884363
:101BA000074901EBC41148556D1C802DEFDB641C07
:101BB000082CEADB00E000BF00BF70BD4A00002037
:101BC000500000205004002040EA01039B0703D08E
:101BD00009E008C9121F08C0042AFAD203E011F86C
:101BE000013B00F8013B521EF9D27047D2B201E02E
:101BF00000F8012B491EFBD270470022F6E710B512
:101C000013460A4604461946FFF7F0FF204610BD6A
:101C1000F0B480EA0102D40F4200B2EB410F02D2CD
:101C20000246084611464A0042D0C30DDDB2C1F358
:101C3000C752AD1A202D35DAC1F3160141F4000266
:101C400004B15242C5F1200602FA06F12A411044BD
:101C5000B3EBD05F23D0C4B1012DA0EBC35009DC9E
:101C6000F0BC4FF0004202EAC352DBB200F50000C4
:101C700000F0A6BA400000F1807000EBC350A0F164
:101C8000807040EAD170490009E0490841EAC0711A
:101C9000A0EBC35000F50000400800EBC350F0BCBF
:101CA00000F085BA6142012202EB4101001BF6E718
:101CB000F0BC704781F00041AAE780F00040A7E740
:101CC00030B480EA010202F0004530F0004221F019
:101CD000004013D090B1C30DD40DC2F31601C0F370
:101CE0001600E41A41F4000140F400027D349142F0
:101CF00001D3641C00E04900002C02DA30BC002053
:101D000070474FF400000023914201D3891A034326
:101D100040084FEA4101F7D151B1914202D14FF051
:101D2000004105E002D24FF0010101E06FF0010136
:101D300003EBC450284430BC00F039BA2DE9FE4F03
:101D4000804681EA0300C00F0C46009021F000415C
:101D500023F00045B8EB0200A94105D240462146D8
:101D600090461C460B46024623F00040104347D0E5
:101D7000270DC7F30A00C3F30A510290401A0190DD
:101D800040286BDAC3F3130040F4801B009892469E
:101D900020B10023D2EB030A63EB0B0B01985946E9
:101DA000C0F14002504600F0D1F906460D465046BB
:101DB0005946019A00F0E9F910EB0800614100244E
:101DC00087EA115284EAE7731A4340D0009A62B35B
:101DD000019A012A4FEA075215DC001B61EB020150
:101DE0004FF0004202EA0752CDE90042001C41F5E3
:101DF000801132462B4600F020FA03B0BDE8F08F88
:101E000040462146F9E7001B61EB0201001C41F549
:101E1000801300185B412018A2F5001747EB03015F
:101E200040EAD570B6196D4111E06D084FEA3606EB
:101E300045EAC0754FEA0752001B61EB0201001C26
:101E400041F5801149084FEA3000001951413246EE
:101E50002B4603B0BDE8F04F00F0E0B90098012236
:101E600040000023D0EB020263EBE07300982146B0
:101E70004FEAE074B8EB000061EB0401E9E783F09E
:101E800000435BE781F0004158E72DE9FE4F81EA0E
:101E9000030404F0004421F0004100944FF0000BD3
:101EA00023F0004350EA01045ED052EA03045BD001
:101EB000C3F30A54C1F30A552C44A4F2F334019439
:101EC000A0FB0254C1F3130141F48011C3F31303C7
:101ED00043F4801301FB024400FB034E840A970A7B
:101EE00044EA815447EA8357A4FB076802958D0AA8
:101EF00005FB07854FEA932C04FB0C542705029D34
:101F00004FEA065847EA1637B5EB08056EEB070CA3
:101F1000870E920E47EA811742EA8312A7FB02015D
:101F2000B6EB0B0164EB00042B0D43EA0C335E1897
:101F300044EB1C50DA465146E7FB0201C5F313049B
:101F40004FEA0B3343EA14534FEA0432019C43EA4D
:101F50000603A4F10C040294009CCDE900B400F047
:101F60006CF903B0BDE8F08F00200146F9E72DE9D8
:101F7000F04D81EA030404F0004B21F000451446C3
:101F80004FF0000A23F0004150EA050220D054EA45
:101F900001021DD0C5F30A570246C5F31303C1F36E
:101FA0001300C1F30A5640F4801543F48013A7EBE5
:101FB0000608101BD64608F2FD3873EB050002D365
:101FC00008F1010801E092185B41B8F1000F03DA53
:101FD00000200146BDE8F08D00204FF48011064638
:101FE00084460EE0171B73EB050705D3121B63EB4A
:101FF000050306434CEA010C49084FEA30009218E9
:102000005B4150EA0107EDD152EA030012D082EAA7
:10201000040083EA0501084305D0101BAB4106D23A
:102020000122002306E000224FF0004302E06FF09F
:10203000010253101AEB06004CEB085110EB0A009A
:1020400041EB0B01BDE8F04D00F0E8B8C10F80EAAC
:10205000E0700844CA079623002100F0B1B80EB51D
:10206000C10F80EAE0700844CA07002140F2334300
:102070008DE80E000A460B4600F0DFF803B000BD05
:102080000EB540F2334102910021CDE900110A461C
:102090000B4600F0D2F803B000BD70B5C1F30A5290
:1020A00001F000450024C1F3130140F2FF3341F475
:1020B00080119A4201DA002070BD40F233439A4207
:1020C000A2F2334203DC524200F04FF800E09040AD
:1020D0002C43F1D0404270BD00F0004230F000408F
:1020E0000AD0C10D01F56071C0F3160042EA01513A
:1020F000C20840071143704700200146704701F0B5
:10210000004330B421F0004150EA010206D00A0D2C
:10211000A2F56072C1F31301002A02DC30BC00207A
:102120007047440F44EAC104C100E01830BC00EB22
:10213000C25000F03CB80000002801DBC0F10040B4
:10214000002901DBC1F1004181427047202A04DBF4
:10215000203A00FA02F1002070479140C2F12003BA
:1021600020FA03F3194390407047202A04DB203AF9
:1021700021FA02F00021704721FA02F3D040C2F1A7
:1021800020029140084319467047202A06DBCB17EE
:10219000203A41FA02F043EAE07306E041FA02F322
:1021A000D040C2F1200291400843194670470029EF
:1021B000A8BF7047401C490008BF20F001007047CD
:1021C00010B4B0FA80FC00FA0CF050EA010404BF2D
:1021D00010BC704749B1CCF1200421FA04F411FA83
:1021E0000CF118BF012121430843A3EB0C01CB1DC7
:1021F0004FEA00614FEA102042BF002010BC704738
:1022000000EBC35010440029A4BF10BC7047401C11
:10221000490008BF20F0010010BC704710B5141E23
:1022200073F1000408DA401C41F1000192185B418F
:102230001A4301D120F0010010BD2DE9F04D924666
:102240009B4611B1B1FA81F202E0B0FA80F220327D
:102250009046FFF77BFF04460F4640EA0A0041EA3A
:102260000B0153465A46084313D0114653EA010066
:1022700019D0C8F140025046FFF777FF05460E46D9
:10228000504659464246FFF761FF084305D00120FA
:1022900004E020463946BDE8F08D0020054346EABB
:1022A000E0762C4337430A986305E40AA0EB080064
:1022B0000022FD0A44EA47540A3002D500200146B4
:1022C000E9E7010510196941DDE90845001969418F
:1022D000BDE8F04DA2E70000064C074D06E0E068BF
:1022E00040F0010394E8070098471034AC42F6D35D
:1022F000FDF722FF603000088030000870B521F043
:10230000004303430CD0C1F30A550024D5EB040568
:1023100064EB0403D617AD1AB34102DB002001467B
:1023200070BD201841EB025170BD490050EAC12038
:1023300018BF04204A0D18BF40F0010040F2FF72A0
:10234000B2EB515F08BF40F00200012808BF052032
:10235000704700002DE9F74F144694B00021C4E9FE
:1023600002111599079121F00045C9498D4206DCFB
:102370001599C4E9000117B00020BDE8F08FC549E8
:10238000DFF814A3A9423CDD0799C44E0029C44FCD
:10239000C44A1599534619DDFFF771FD554506D01E
:1023A000C14AC24BFFF76BFDC4E900010AE04FF0E0
:1023B000D352BE4BFFF763FD32463B46FFF75FFD4E
:1023C000C4E9000117B00120BDE8F08FFFF7B6FCAB
:1023D000554506D0B44AB54BFFF7B0FCC4E900013F
:1023E0000AE04FF0D352B14BFFF7A8FC32463B4610
:1023F000FFF7A4FCC4E9000117B04FF0FF30BDE8BF
:10240000F08FAB49A942159978DB21F00041834652
:102410008846A84AA84BFFF738FD0022A74BFFF7D4
:102420008DFCFFF73AFE0990FFF719FE06460F46AE
:102430009C4A5346FFF729FD43465A46FFF722FDC3
:1024400080468A46984A994B30463946FFF71DFD2B
:102450002A0D01250B9242465346FFF713FD032D2B
:10246000C4E9000139D00B98C1F30A51401A05EBB9
:1024700045111139814230DA9148C346784400EB66
:102480000510CDF80CA00C90D0E900233046394659
:10249000FFF7FBFC02460B46049106905846039951
:1024A000FFF7EDFC80468A4602460B4658460399E4
:1024B000FFF7E5FC049B069AFFF7E1FC83460C98C6
:1024C00003913946D0E902233046FFF7DEFC5A4635
:1024D000039BFFF7D4FC6D1CBDE707980028A2BF43
:1024E000099817B0BDE8F08F616881F00041616024
:1024F000099817B04042BDE8F08FFFE78446159871
:10250000C1F31301C0F30A50A0F2F5304FEA60188E
:1025100000F01F06C6F120001390002006900790DF
:1025200041F4801E05206D4676B1664A08EB000135
:102530007A4452F8213002EB8101B3404A68139982
:1025400022FA01F1194305E05F4908EB00027944E2
:1025500051F82210A1FB0E27A1FB0C131A449A423A
:1025600034BF0123002303EB070A05EB8003D3E903
:1025700001B70F448F4234BF0121002193448B44A3
:1025800011B1934502D903E0934501D2012100E046
:102590000021C3E901B7514445F82010011EA0F104
:1025A0000100C1DC0298059F00F10050800F1290DD
:1025B0000298DDE903568000FFF751FD8346284667
:1025C0000D91FFF75DFD6FF01D02FFF797FECDE95E
:1025D0000E013046FFF754FD6FF03D02FFF78EFE0F
:1025E00080468A463846FFF74BFD6FF05D02FFF7E5
:1025F00085FE0746424653461191FFF79FFBDDE9F2
:102600000E23FFF79BFB5A460D9BFFF797FB002518
:102610000E465A4628460D9BFFF731FCDDE90E2396
:10262000FFF72DFC42465346FFF729FC3A46119B23
:10263000FFF728FCDFF898A0244A5346FFF725FC53
:1026400007468846234A244B31462846FFF71DFC9F
:102650003A464346FFF772FB074688464FF0A842CA
:10266000534631462846FFF710FC3A464346FFF7EB
:1026700065FB159A12F0004F04D0129A81F00041C8
:1026800052421292C4E90001129817B0BDE8F08FCF
:10269000FB21E93F7CD90240FB21F93F7370032EF7
:1026A0008A19A33B000040543163621A61B4D03DE3
:1026B000FB21394183C8C96D305FE43F0000E03F32
:1026C000F00A00006C0A00004E0A0000182D445465
:1026D000FB21F93D3326A611460B113C2DE9FF4D98
:1026E00021F0004807460C46B8F1795F08DAFFF799
:1026F000D4FC002801BF0020324904B0BDE8F08DB1
:102700003A46234610461946FFF7BFFB05460246E8
:102710002D480E460B460621784400F05DF82A4607
:102720003346FFF7B2FBDDE9022382468B4638468B
:102730002146FFF7AAFB04460F4652465B46284651
:102740003146FFF7A2FB22463B46FFF798FB0746C0
:102750008A464FF0FF3228463146FFF7CFFD1B4A2D
:1027600090450ADA3A465346FFF789FB04B0002247
:10277000BDE8F04D134BFFF785BB154A4245A8BF96
:10278000A8F500154FF00004B8BF124D22462B46A5
:10279000FFF775FB0646884622462B46002009496E
:1027A000FFF76DFB04460D463A4653463046414618
:1027B000FFF765FB04B022462B46BDE8F04DFFF75E
:1027C00061BB00000000F03F1C0800003333D33F22
:1027D0000000E93F0000D23F2DE9F0414F1E00EB21
:1027E000C7010446D1E9000115461E4637F006022E
:1027F0000DD02A463346FFF748FB7F1E04EBC70384
:10280000D3E90023FFF79AFA37F00602F1D1022F3D
:1028100025D0042F13D0062F18BFBDE8F0812A461B
:102820003346FFF732FBD4E90A23FFF787FA2A463B
:102830003346FFF72AFBD4E90823FFF77FFA2A463D
:102840003346FFF722FBD4E90623FFF777FA2A463F
:102850003346FFF71AFBD4E90423FFF76FFA2A4641
:102860003346FFF712FBD4E90223FFF767FA2A4643
:102870003346FFF70AFBD4E90023BDE8F041FFF738
:102880005DBA00002DE9FF4D054621F0004084B0FF
:102890000C46B0F1795F0BDA2846FFF746FD0428B5
:1028A00008BF00F071F8284608B02146BDE8F08D59
:1028B0002A460B461046FFF7E8FA06460F462A4618
:1028C0002346FFF7E2FA804626488A4632463B46D0
:1028D00005217844FFF780FF83461098029160B38A
:1028E000214A224B40465146FFF7CFFACDE900017D
:1028F0005A4640465146029BFFF7C7FA8246884631
:10290000DDE906014FF0FF32FFF7F8FC524643467F
:10291000FFF7B5FA32463B46FFF7B7FADDE9062383
:10292000FFF7ADFADDE90023FFF7A9FA08B02A4660
:102930002346BDE8F04DFFF7A5BA0B465A46304690
:102940003946FFF7A2FA084A084BFFF7F7F9424663
:102950005346FFF79AFA08B02A462346BDE8F04DE1
:10296000FFF7ECB962070000495555555555C5BFED
:102970000122FFF7C3BCFFF7E1B90022134610465E
:102980001146FFF7F4BA0000024A00201107FFF7D2
:10299000B5BC000001FDFFFF02E008C8121F08C11E
:1029A000002AFAD170477047002001E001C1121FD0
:1029B000002AFBD170470000014908607047000001
:1029C0004C0000202DE9F84F04460D4621F0004050
:1029D00000917349814211DC7249884201DC06D1C1
:1029E0002CB120462946BDE8F84FFFF7C1BF6E481D
:1029F000002DCCBF6D496E49BDE8F88F6D4981420D
:102A000011DD6D498142D8BF4FF0FF366DDD2046A4
:102A10002946FFF78AFC042808BFFFF7B5FF2046C8
:102A20002946BDE8F88F6549654F25F0004581428C
:102A300033DD6449814219DD002632464FF0804380
:102A400020462946FFF77AF980468A460122204629
:102A50002946FFF753FC00223B46FFF710FA424697
:102A60005346FFF784FA04460D463EE00126002255
:102A7000BA463B4620462946FFF760F980460F4696
:102A80000022534620462946FFF7F9F942463B46C5
:102A9000FFF76DFA04460D4627E04B4981421BDDE6
:102AA000DFF828A102260022534620462946FFF7D8
:102AB000ECF900223B46FFF741F980460F46002221
:102AC000534620462946FFF7DAF942463B46FFF7D0
:102AD0004EFA04460D4608E0032622462B46002007
:102AE0003B49FFF744FA04460D4622462B46104662
:102AF0001946FFF7CAF98B46824602460B46FFF796
:102B0000C4F907460246334888460B4606217844F6
:102B1000FFF762FE52465B46FFF7B7F982462E4842
:102B20008B463A46434605217844FFF755FE3A4620
:102B30004346FFF7AAF902460B46002E5046594677
:102B40000CDAFFF7FBF822462B46FFF79EF901B09F
:102B500022462B46BDE8F04FFFF794B9FFF7EEF899
:102B600022462B46FFF791F91C4A7A4402EBC60332
:102B7000D3E90023FFF783F922462B46FFF77FF9BD
:102B8000174A7A4402EBC603D3E90023FFF77AF928
:102B9000009A002AB8BF81F00041BDE8F88F00001C
:102BA000000010440000F07F182D4454FB21F93F31
:102BB000FB21F9BF0000DC3F0000203E0000F33F96
:102BC0000000F03F0000E63F008003400000F83FB7
:102BD0000000F0BFF6030000B40300005203000041
:102BE0001A0300002DE9F04D9446CCF1000423F0C7
:102BF00000464CEA0404524F46EAD4749A4688468A
:102C000021F00042BC4206D8454240EA050442EAAF
:102C1000D474BC4204D9BDE8F04D6246FFF7ABBEA8
:102C2000AAF14055A5F17F6555EA0C040BD00224AA
:102C300004EAAA74434DDFF810E144EAD87452EA7A
:102C4000000B04D00CE0BDE8F04DFFF7BBBE002C3C
:102C500014BF012CBDE8F08D022C30D0032C32D0F3
:102C600056EA0C0B0AD0BE4220D1BA4209D126F056
:102C7000804622F080423346114617E000291ADBD5
:102C800025E0DFF8C8B0FB44002C04BFDBE90001FD
:102C9000BDE8F08D012C02BFDBE9000181F00041AD
:102CA000BDE8F08D022C0AD0032C0CD0BA4212D110
:102CB000B8F1000F0BDA23482549BDE8F08D28460E
:102CC0002449BDE8F08D28467146BDE8F08D1D48C9
:102CD0002149BDE8F08D921B12153C2AC4BF19484A
:102CE0001D490EDCBAF1000FBEBF12F13C0F0020EF
:102CF000014606DB6246FFF73AF921F00041FFF793
:102D000061FE002C08BFBDE8F08D012C04BF81F0EE
:102D10000041BDE8F08D114A114B022C07D0FFF79E
:102D2000AEF82A46BDE8F04D0A4BFFF7A8B8FFF70A
:102D3000A6F82A46BDE8F04D064BFFF7A3B8000001
:102D40000000F07F182D4454FB2109C0DE02000072
:102D5000FB21F9BFFB210940FB21F93F075C14333C
:102D600026A6A13C00B5244B21F0004287B09A4230
:102D7000DCBF0022134629DD204B9A4208D140B91E
:102D80004FF00100FFF718FEFFF7F7FD07B000BD99
:102D900003DBFFF7EDFD07B000BD02AAFFF7DAFA8B
:102DA00010F0030104BF0DF1080C9CE80F000DD0DA
:102DB000012001290ED0022914D00DF1080C009039
:102DC0009CE80F00FFF75EFD07B000BDFFF786FC33
:102DD00007B000BD0DF1080C00909CE80F00FFF754
:102DE00051FD05E00DF1080C9CE80F00FFF776FCA3
:102DF00007B081F0004100BDFB21E93F0000F07FFA
:102E000000B5254B21F0004287B09A4203DC002236
:102E1000134600922BE0214B9A4208D140B94FF063
:102E20000100FFF7C9FDFFF7A8FD07B000BD03DBF8
:102E3000FFF79EFD07B000BD02AAFFF78BFA10F066
:102E400003014FF001000DD0012914D002291AD03E
:102E50000DF1080C9CE80F00FFF740FC07B081F073
:102E6000004100BD0DF1080C00909CE80F00FFF739
:102E700009FD07B000BD0DF1080C9CE80F00FFF73D
:102E80002DFC07B000BD0DF1080C00909CE80F0070
:102E9000FFF7F8FCE2E70000FB21E93F0000F07FCC
:102EA0004FBB610567ACDD3F182D4454FB21E93F62
:102EB0009BF681D20B73EF3F182D4454FB21F93F51
:102EC000E2652F227F2B7A3C075C143326A6813CD7
:102ED000BDCBF07A8807703C075C143326A6913C82
:102EE000C4EB98999999C9BF711623FEC671BCBFEE
:102EF0006D9A74AFF2B0B3BF9AFDDE522DDEADBF56
:102F00002F6C6A2C44B4A2BF0D5555555555D53F6D
:102F1000FF8300922449C23F6E204CC5CD45B73F88
:102F2000513DD0A0660DB13FEB0D76244B7BA93F00
:102F300011DA22E33AAD903F4C5555555555A53F12
:102F40007751C1166CC156BF9015CB19A001FA3E3E
:102F5000AD529C804F7E92BEC4B1B4BD9EEE213E68
:102F6000D43888BEE9FAA8BD0000000000000000C7
:102F700000004054FB21F93F3163621A61B4D03D37
:102F80000000601A61B4D03D7370032E8A19A33B10
:102F90000000002E8A19A33BC14920259A837B3962
:102FA00000000000000000006E83F9A22915444EC5
:102FB000D15727FCC0DD34F5999562DB4190433C45
:102FC000AB6351FE61C5BBDE3A6E24B7E0D24D4221
:102FD000EA2E49061C92D1091CEB1DFE3EA729B121
:102FE000F53582E88444BB2E26709CE9417E5FB4AF
:102FF00039D69139F43953838B5F849C3B28F9BDD2
:10300000FF97F81F0F9805DE8B112FEF1F6D0A5ADF
:10301000CF7E366DB709CB27663F464F2DEA5F9EC0
:10302000C7BA27757BF1E5EBF739073DEA92528A7B
:10303000B15FFB6B085D8D1FA6F810111111813F68
:10304000D561C119A0012ABF7DFEB157E31DC73E5E
:10305000EB9C2B8AE6E55ABE7CD5CF5A3AD9E53DA2
:10306000803000080000002050000000982900086F
:10307000D030000850000020000C0000A8290008F3
:1030800000A24A0400000000000000000102030446
:1030900006070809000000000102030401020304FE
:1030A00006070809020406080000000000000000EE
:1030B000000000000000000000000000010000000F
:1030C0000103070F1F3F7FFF010101000000000007
:0400000508000131BD
:00000001FF
